:020000040800F2
:100000008058002045010008A12500086D17000850
:100010009D25000831090008374400080000000051
:100020000000000000000000000000008938000807
:10003000190F000800000000952600082D3A00085E
:100040005F0100085F0100085F0100085F01000810
:100050005F0100085F0100085F0100085F01000800
:100060005F0100085F0100085F0100085F010008F0
:100070005F0100085F0100085F0100085F010008E0
:100080005F0100085F0100085F0100085F010008D0
:100090005F0100085F0100085F010008890F000888
:1000A0005F0100085F0100085F0100085F010008B0
:1000B0005F010008B53B00085F0100085F01000810
:1000C0005F0100085F0100085F0100085F01000890
:1000D0005F0100085F0100085F010008014100089E
:1000E0005F0100085F0100085F0100085F01000870
:1000F0005F0100085F0100085F0100085F01000860
:100100005F010008F92900085F0100085F0100088D
:100110005F0100085F0100085F0100085F0100083F
:100120005F0100085F0100085F0100085F0100082F
:10013000DFF80CD000F060FB004800473D7200087B
:10014000805800200648804706480047FEE7FEE743
:10015000FEE7FEE7FEE7FEE7FEE7FEE7FEE7FEE777
:10016000313A0008310100082DE9F05F0546002012
:1001700092469B4688460646814640241BE0284618
:1001800041464746224600F037F953465A46C01AC0
:10019000914110D311461846224600F01EF92D1A3F
:1001A00067EB01084F4622460120002100F015F9B7
:1001B00017EB00094E41201EA4F10104DFDC484684
:1001C00031462A464346BDE8F09F40EA01039B07BB
:1001D00003D009E008C9121F08C0042AFAD203E0BC
:1001E00011F8013B00F8013B521EF9D27047D2B220
:1001F00001E000F8012B491EFBD270470022F6E710
:1002000010B513460A4604461946FFF7F0FF20468C
:1002100010BD30B505462A460B4612F8010B13F8FF
:10022000014B08B1A042F8D01CB1002802D06D1CCF
:10023000F1E7284630BD10B5002200E0521C835C77
:100240008C5CA34201D1002BF8D1D8B2E1B2401AA4
:1002500010BDF0B480EA0102D40F4200B2EB410FAE
:1002600002D20246084611464A0042D0C30DDDB212
:10027000C1F3C752AD1A202D35DAC1F3160141F48E
:10028000000204B15242C5F1200602FA06F12A41E9
:100290001044B3EBD05F23D0C4B1012DA0EBC35009
:1002A00009DCF0BC4FF0004202EAC352DBB200F5B9
:1002B000000000F0BAB8400000F1807000EBC350BD
:1002C000A0F1807040EAD170490009E0490841EA94
:1002D000C071A0EBC35000F50000400800EBC35014
:1002E000F0BC00F099B86142012202EB4101001B11
:1002F000F6E7F0BC704781F00041AAE780F00040CB
:10030000A7E730B480EA010202F0004530F0004275
:1003100021F0004013D090B1C30DD40DC2F31601EB
:10032000C0F31600E41A41F4000140F400027D34E9
:10033000914201D3641C00E04900002C02DA30BC79
:10034000002070474FF400000023914201D3891A26
:10035000034340084FEA4101F7D151B1914202D124
:100360004FF0004105E002D24FF0010101E06FF0D3
:10037000010103EBC450284430BC00F04DB8962373
:100380000022114600F051B800F0004230F0004069
:100390000AD0C10D01F56071C0F3160042EA0151A7
:1003A000C20840071143704700200146704730B52E
:1003B0000B46014600202022012409E021FA02F523
:1003C0009D4205D303FA02F5491B04FA02F52844BD
:1003D000151EA2F10102F1DC30BD202A04DB203A17
:1003E00000FA02F1002070479140C2F1200320FA88
:1003F00003F3194390407047202A04DB203A21FA86
:1004000002F00021704721FA02F3D040C2F120022D
:1004100091400843194670470029A8BF7047401C07
:10042000490008BF20F00100704710B4B0FA80FC0A
:1004300000FA0CF050EA010404BF10BC704749B147
:10044000CCF1200421FA04F411FA0CF118BF0121B7
:1004500021430843A3EB0C01CB1D4FEA00614FEA97
:10046000102042BF002010BC704700EBC350104466
:100470000029A4BF10BC7047401C490008BF20F0F1
:10048000010010BC70472DE9FE4F804681EA030051
:10049000C00F0C46009021F0004123F00045B8EB5E
:1004A0000200A94105D24046214690461C460B4613
:1004B000024623F00040104347D0270DC7F30A003F
:1004C000C3F30A510290401A019040286BDAC3F33B
:1004D000130040F4801B0098924620B10023D2EB19
:1004E000030A63EB0B0B01985946C0F140025046DA
:1004F000FFF773FF06460D4650465946019A00F035
:100500008DF910EB08006141002487EA115284EA5A
:10051000E7731A4340D0009A62B3019A012A4FEA66
:10052000075215DC001B61EB02014FF0004202EAAA
:100530000752CDE90042001C41F5801132462B469E
:1005400000F08DF903B0BDE8F08F40462146F9E791
:10055000001B61EB0201001C41F5801300185B4198
:100560002018A2F5001747EB030140EAD570B61931
:100570006D4111E06D084FEA360645EAC0754FEA55
:100580000752001B61EB0201001C41F58011490874
:100590004FEA30000019514132462B4603B0BDE806
:1005A000F04F00F04DB90098012240000023D0EB3D
:1005B000020263EBE073009821464FEAE074B8EB67
:1005C000000061EB0401E9E783F000435BE781F0A1
:1005D000004158E72DE9FE4F81EA030404F000448E
:1005E00021F0004100944FF0000B23F0004350EA4B
:1005F00001045ED052EA03045BD0C3F30A54C1F392
:100600000A552C44A4F2F3340194A0FB0254C1F324
:10061000130141F48011C3F3130343F4801301FB6E
:10062000024400FB034E840A970A44EA815447EAD5
:100630008357A4FB076802958D0A05FB07854FEADF
:10064000932C04FB0C542705029D4FEA065847EAF9
:100650001637B5EB08056EEB070C870E920E47EACE
:10066000811742EA8312A7FB0201B6EB0B0164EB90
:1006700000042B0D43EA0C335E1844EB1C50DA46A1
:100680005146E7FB0201C5F313044FEA0B3343EA7B
:1006900014534FEA0432019C43EA0603A4F10C040C
:1006A0000294009CCDE900B400F0D9F803B0BDE895
:1006B000F08F00200146F9E72DE9F04D81EA0304AF
:1006C00004F0004B21F0004514464FF0000A23F0DF
:1006D000004150EA050220D054EA01021DD0C5F3C2
:1006E0000A570246C5F31303C1F31300C1F30A56B8
:1006F00040F4801543F48013A7EB0608101BD64680
:1007000008F2FD3873EB050002D308F1010801E09F
:1007100092185B41B8F1000F03DA00200146BDE8F2
:10072000F08D00204FF48011064684460EE0171B22
:1007300073EB050705D3121B63EB050306434CEA75
:10074000010C49084FEA300092185B4150EA01075A
:10075000EDD152EA030012D082EA040083EA0501D7
:10076000084305D0101BAB4106D20122002306E04E
:1007700000224FF0004302E06FF0010253101AEB29
:1007800006004CEB085110EB0A0041EB0B01BDE8F1
:10079000F04D00F055B8C1F30A52C1F3130140F215
:1007A000FF3341F480119A4202DA0020014670477B
:1007B00040F233439A42A2F2334202DC5242FFF744
:1007C0001BBEFFF70ABE000030B5041E71F1000425
:1007D00004DB4FF00044404264EB0101141E73F14E
:1007E000000405DB1C464FF00043524263EB040358
:1007F000994208BF904230BD064C074D06E0E068C4
:1008000040F0010394E8070098471034AC42F6D357
:10081000FFF792FC54CA000874CA0008202A06DBBD
:10082000CB17203A41FA02F043EAE07306E041FABE
:1008300002F3D040C2F120029140084319467047AC
:1008400010B5141E73F1000408DA401C41F10001D8
:1008500092185B411A4301D120F0010010BD2DE92F
:10086000F04D92469B4611B1B1FA81F202E0B0FA26
:1008700080F220329046FFF7B0FD04460F4640EA72
:100880000A0041EA0B0153465A46084313D0114669
:1008900053EA010019D0C8F140025046FFF7ACFD01
:1008A00005460E46504659464246FFF796FD084318
:1008B00005D0012004E020463946BDE8F08D002037
:1008C000054346EAE0762C4337430A986305E40A79
:1008D000A0EB08000022FD0A44EA47540A3002D582
:1008E00000200146E9E7010510196941DDE90845E5
:1008F00000196941BDE8F04DA2E7000008B50121EB
:10090000102001F009FF0120ADF8000010208DF843
:10091000030003208DF802006946044800F01AFE27
:100920000121024800F0F3FE08BD00000010014064
:1009300000BFFEE710B50521034803F003FA0020CD
:100940000249086010BD0000000C00405400002067
:1009500070B500254FF4803400E0641E24B180207F
:1009600002F02AF80028F8D014B90325284670BDF3
:1009700040F2FF5001F0D8FF2846F8E7014600BFDB
:100980000748406B00F045000028F9D040F2FF50C6
:10099000034A90631046406908221040C0B2704775
:1009A0000080014070B500251048446B01E00F48FD
:1009B000446B04F045000028F9D004F0040028B18D
:1009C0000325042001F0B0FF284670BD04F00100AB
:1009D00028B10125012001F0A7FF2846F5E740F2E4
:1009E000FF5001F0A1FF2846EFE700000080014022
:1009F00070B500250B48446B01E00A48446B04F0D5
:100A000045000028F9D004F0040028B10325042093
:100A100001F08AFF284670BD40F2FF5001F084FFCC
:100A20002846F8E7008001402DE9F04106460F46D0
:100A30004FF000082248456B01E02148456B05F066
:100A400045000028F9D005F0040038B14FF0030844
:100A5000042001F069FF4046BDE8F08105F0010087
:100A600030B14FF00108012001F05EFF4046F3E78E
:100A700001F09CFFB04203D04FF010084046EBE776
:100A800040F2FF5001F050FF002001F0A9FF0446A2
:100A900004F4604018B9200C38804046DCE704F4C8
:100AA000005008B11320D7E704F4804008B11020AB
:100AB000D2E704F4004008B10F20CDE74046CBE771
:100AC0000080014070B500264FF480350F48446B1C
:100AD00002E06D1E0D48446B04F0450008B9002D7E
:100AE000F7D115B104F0040028B10326042001F069
:100AF0001BFF304670BD04F0400028B100264020A6
:100B000001F012FF3046F5E73046F3E70080014080
:100B100008B50121202001F0FFFD4020ADF80000C4
:100B200010208DF8030003208DF80200694602486A
:100B300000F010FD08BD00000014014010B5FFF7E3
:100B4000E7FF4021014800F0E4FD10BD0014014022
:100B500008B54020ADF8000048208DF80300694634
:100B6000014800F0F7FC08BD0014014008B5402022
:100B7000ADF8000010208DF8030003208DF802006E
:100B80006946024800F0E6FC08BD00000014014080
:100B900070B50025002424E000BF4021134800F078
:100BA000ADFD0028F9D0282002F0A6FF40210F4813
:100BB00000F0A4FD01280DD100BF40210B4800F03A
:100BC0009DFD0128F9D0C4F1070101208840C0B281
:100BD000054304E0C4F10701012088408543601CFF
:100BE000C4B2082CD8DB284670BD000000140140B8
:100BF00010B50446FFF7BAFF4021244800F087FDF6
:100C0000122002F045FF4021204800F082FD1E2006
:100C100002F072FFFFF79CFF40211C4800F06EFDC0
:100C200080BB00BF4021194800F068FD0028F9D0C2
:100C300000BF4021154800F061FD0128F9D0FFF701
:100C4000A7FF2070FFF7A4FF6070FFF7A1FFA0705F
:100C5000FFF79EFFE070FFF79BFF2071FFF786FF15
:100C600040210A4800F055FD207861780844A178B9
:100C70000844E17808442179884201D1012010BD5F
:100C80000020FCE7FFE70020F9E700000014014026
:100C900000F0805111B10349086001E00249486049
:100CA00070470000040402400000024021B10268C5
:100CB00042F00102026004E002684FF6FE731A403F
:100CC0000260704701460020002201F0805313B1FA
:100CD000054B1A6801E0054B1A6802EA01030BB1E3
:100CE000012000E0002070470004024000000240A4
:100CF00010B50022026847F6F0739A430C6A8B68BD
:100D000023430C6923434C6923438C692343CC69F7
:100D100023434C6A23438C6A23431A430260CB6803
:100D200043600B6883604B68C36010BDF0B587B04B
:100D30005448FFF75DFF012827D15249C878FFF7D3
:100D40001EFB06465049FFF7DCFA04464D498878F9
:100D5000FFF715FB05462146FFF77BFA4B49C1F823
:100D6000FC0048494878FFF70AFB06464649FFF76A
:100D7000C8FA044643490878FFF701FB05462146B7
:100D8000FFF767FA4149C1F8000101F003FB0128B0
:100D900004D101023E4800F0BAFC04E04FF4807137
:100DA0003B4800F0B6FC00F023FA01280DD1802169
:100DB000384800F0AEFC0121364800F0AAFC36A10C
:100DC0003248323003F04AFB0CE08021314800F019
:100DD0009EFC01212F4800F09AFC34A12B483230B0
:100DE00003F03CFB01F06AFC01280BD1334800689A
:100DF000012801D1FFF79EFD31A12448643003F0A2
:100E00002DFB04E031A12148643003F027FB02F000
:100E100013FC012805D130A11C48963003F01EFBBD
:100E200004E031A11948963003F018FB4FF48071AB
:100E3000314800F063FC20B930A1144803F00EFBE8
:100E400003E031A1114803F009FB1049D1F800017A
:100E5000FFF79AFA04460D460C49D1F8FC00FFF75B
:100E600093FA02AA33C209489630A0F13201A0F1E8
:100E70006403064ACDE9001026496E3003F0EEFA0D
:100E800007B0F0BD400000200000204154010020C8
:100E9000000C0140001001405C2246697265207719
:100EA00061726E696E675C22000000005C22466918
:100EB0007265207361666574795C220054000020BD
:100EC0005C225261696E696E675C22005C224E6F23
:100ED000205261696E5C22005C225368616B656917
:100EE0006E675C22000000005C224E6F2053686138
:100EF0006B655C2200000000000801405C224E6F20
:100F0000626F64795C2200005C22536F6D656F6EC6
:100F1000655C2200B4C800087047000008B50121D4
:100F2000080201F0F9FB4FF40050ADF8000010206A
:100F30008DF8030003208DF802006946074800F091
:100F400009FB0121080201F0E7FB4FF48040ADF8F6
:100F500000006946014800F0FDFA08BD002001408C
:100F600010B5FFF7DBFF4FF48041064800F0D1FBDE
:100F70004FF40051034800F0CAFB4FF4E13002F097
:100F800037FF10BD0020014010B54FF4807000F015
:100F90000DF818B14FF4807000F002F810BD000099
:100FA0000149086070470000140401400146002018
:100FB0000022074B1B6803EA0102054B14331B6830
:100FC0000B4013B10AB1012000E00020704700007F
:100FD00000040140002123498279002A3AD00A46C0
:100FE000126803689A430B461A600A1D1268036868
:100FF0009A430B1D1A60027911440A6803681A4368
:101000000A60184A0832126803689A43154B08337D
:101010001A601A1D126803689A43124B0C331A6047
:101020004279102A0ED11A1F126803681A430D4B19
:1010300008331A601A1D126803681A43094B0C33EF
:101040001A600DE00749427911440A6803681A439F
:101050000A6005E0027911440A6803689A430A604D
:1010600070470000000401400EB50121052001F089
:1010700053FB01F0AAFA4FF48070ADF80800282065
:101080008DF80B0002A90B4800F064FA082100203B
:1010900000F040FA4FF48070009000208DF80400BA
:1010A00010208DF8050001208DF806006846FFF736
:1010B00091FF0EBD0008014010B529A12B48FFF794
:1010C000A8F828B14FF40071294800F022FB45E050
:1010D00028A12648FFF79DF828B14FF40071244855
:1010E00000F015FB3AE026A12048FFF792F828B15E
:1010F0004FF48051254800F00CFB2FE024A11B4841
:10110000FFF787F828B14FF48051204800F0FFFA2C
:1011100024E022A11548FFF77CF828B14FF40051D4
:101120001A4800F0F6FA19E01FA11048FFF771F80D
:1011300028B14FF40051154800F0E9FA0EE01DA166
:101140000A48FFF766F810B101F096FA06E01CA114
:101150000648FFF75EF808B1FFF7ECFB10BD000092
:101160004C45445F315F4F4E000000007C1400206E
:10117000000C01404C45445F315F4F464600000083
:101180004C45445F325F4F4E00000000001C0140A0
:101190004C45445F325F4F46460000004C45445F7B
:1011A000335F4F4E000000004C45445F335F4F46B5
:1011B0004600000057696E646F775F4F4E00000075
:1011C00057696E646F775F4F4646000008B501218E
:1011D000080201F0A1FA0220ADF8000028208DF8E5
:1011E00003006946014800F0B5F908BD0020014040
:1011F00010B50221044800F081FA012801D1002035
:1012000010BD0120FCE700000020014051B1820028
:10121000A2F1C042126842F001038200A2F1C04272
:10122000136009E08200A2F1C0421268034B1A4029
:101230008300A3F1C0431A6070470000FEFF0F0057
:10124000D0E901121143C268114302691143426996
:10125000114382691143C2691143026A1143426A10
:101260001143826A1143C26A1143026B114302683F
:101270009200A2F1C0421160816808290BD1016877
:101280008900A1F1C041096841F04002016889006C
:10129000A1F1C0410A60416B0968426B526841EAA2
:1012A0000211426B926841EA0221426B928941EA43
:1012B0000241426B128A41EA0251426B127D41EABD
:1012C0000261426B926911430268521C9200A2F1C2
:1012D000C0421160C16AB1F5804F1BD1816B0968B2
:1012E000826B526841EA0211826B926841EA0221E4
:1012F000826B128A41EA0251826B127D41EA0261DD
:10130000826B9269114302689200A2F1C042C2F856
:10131000041107E06FF0704201688900A1F1C0413B
:10132000C1F80421704700002DE9FC4107460D4635
:101330000026002400200090019008205D490860EC
:1013400010204860402088600020C8604FF4806012
:101350000861084601F082FB1020FFF70FFB0446EE
:1013600014B12046BDE8FC8153480088000451496F
:10137000086037204860402088600020C8604FF433
:1013800080600861084601F069FB3720FFF7F6FA34
:1013900004460CB12046E5E74FF0FF3047490860AE
:1013A00008204860302088600220C8600020086162
:1013B00001204861084601F0CFFA00203D4908604D
:1013C00033204860402088600020C8604FF480606F
:1013D0000861084601F042FB3320FFF7CFFA0446CC
:1013E0000CB12046BEE70CE04FF4001001F0E4FA27
:1013F00038B101F02DFB4DF82600761C012E00D9E6
:1014000006E02F48406B40F22A6108400028EBD0EC
:1014100000BF082001F0D0FA28B1082001F084FABA
:10142000042420469EE7022001F0C6FA28B10220DB
:1014300001F07AFA0224204694E7202001F0BCFA59
:1014400028B1202001F070FA062420468AE74FF4E4
:10145000007001F0B1FA30B14FF4007001F064FA9D
:10146000072420467EE740F2FF5001F05DFA009825
:101470000006009901F47F4140EA0120009901F43F
:101480007F0140EA1120009940EA116068600198EC
:101490000006019901F47F4140EA0120019901F41D
:1014A0007F0140EA1120019940EA1160286020463E
:1014B00058E7000028010020040000203C01002023
:1014C0000080014008B50121302001F025F94FF4DA
:1014D000F850ADF8000003208DF8020018208DF8B8
:1014E00003006946094800F035F80420ADF8000013
:1014F0006946074800F02EF80121880201F0ECF857
:101500000121022001F0E8F808BD000000100140B0
:101510000014014030B500228B071C0F0F2303FA83
:1015200004F20B4B8C1053F824309343084C8D106D
:1015300044F8253023468C1053F824308C07240FB0
:1015400000FA04F42343024C8D1044F8253030BDDA
:10155000080001402DE9F041024600250026002048
:1015600000230024002791F803C00CF00F0591F828
:1015700003C00CF0100CBCF1000F03D091F802C0B6
:101580004CEA050591F800C0BCF1000F31D0146899
:1015900000202BE04FF0010C0CFA00F3B1F800C072
:1015A0000CEA03069E4220D183004FF00F0C0CFA88
:1015B00003F7BC4305FA03FC4CEA040491F803C0AA
:1015C000BCF1280F06D14FF0010C0CFA00FCC2F858
:1015D00014C00AE091F803C0BCF1480F05D14FF0E8
:1015E000010C0CFA00FCC2F810C0401C0828D1D332
:1015F0001460B1F800C0BCF1FF0F34DD5468002066
:101600002EE000F1080C4FF0010808FA0CF3B1F8D5
:1016100000C00CEA03069E4221D183004FF00F0C5C
:101620000CFA03F7BC4305FA03FC4CEA040491F8F6
:1016300003C0BCF1280F05D100F1080C08FA0CF822
:10164000C2F8148091F803C0BCF1480F07D100F133
:10165000080C4FF0010808FA0CF8C2F81080401C82
:101660000828CED35460BDE8F0810000F0B50A46EA
:10167000002300240021002500F00046B6F1004FB1
:1016800002D11D4EF16901E01B4E7168C0F30345A4
:1016900083B200F44016B6F5401F08D121F0706106
:1016A000154E766826F07066134F7E6012E000F4E7
:1016B0008016B6F5801F06D1032606FA05F4A1436D
:1016C00041F0706106E0460D360103FA06F6B143BB
:1016D00041F0706122B1460D360103FA06F631433E
:1016E00000F00046B6F1004F02D1034EF16101E077
:1016F000014E7160F0BD0000000001400246002074
:1017000093680B400BB1012000E00020704741615D
:1017100070470161704700002DE9F04180460C469A
:101720001048007820B901F0C9FF01200D49087068
:101730002512E6B2A5F1A101C1EB011202EB4111A4
:1017400006EB4101A1390802C11700EB5171CF101E
:10175000054839182022404601F088FF0020BDE8E6
:10176000F08100003C0000200030180000BFFEE7C0
:1017700010B5044624B140210448FFF7C8FF03E038
:1017800040210248FFF7C5FF10BD000000200140C6
:101790002DE9F04106460F4614461D462B462246CB
:1017A0003946304600F0F2FA04FB05F00249098898
:1017B00000F089F9BDE8F0812200002001B502E0C7
:1017C0000098401E009000980028F9D108BD000044
:1017D0002DE9F04389B080468946174610231A4602
:1017E0004946404600F0D2FA2C2000F07BFD3946F5
:1017F00001A8FFF791FF002422E001A810F814606F
:101800004FF6FF7000EA0626012000EB440001A914
:10181000085C064300250FE04FF4004028413040AB
:1018200020B10A48008800F061FD03E00848008804
:1018300000F05CFD681CC5B2102DEDDB601CC4B26D
:10184000102CDADB09B0BDE8F08300002000002096
:10185000220000202DE9F05F804689461646A6F159
:1018600020001FFA80FA1E49096889881C4A1268FC
:10187000D28801FB02F0C11700EB5171C1F3C70719
:101880001748006800680AFB070B15480068C38802
:101890001348006882884946404600F077FA2C20B9
:1018A00000F020FD002416E0002510E01BF80400E5
:1018B00080212941084020B10A48008800F016FD27
:1018C00003E00948008800F011FD681CC5B2082D2E
:1018D000ECDB601CC4B2BC42E6DBBDE8F09F00005C
:1018E0001C00002020000020220000202DE9F041F3
:1018F00005460C46002648E020787E2825DC304648
:10190000244909688988084423490988884205DDF3
:10191000002620480068C088284485B228461D4912
:101920000968C98808441D490988884201DD0026E4
:101930000025227829463046FFF78CFF15480068BD
:101940008088304486B2641C1FE030461030124953
:101950000988884203DD002605F1100085B228467B
:1019600010300E490988884201DD002600252788AD
:10197000380200EB272087B23A4629463046FFF767
:1019800027FF06F1100086B2A41C20780028B3D1EE
:10199000BDE8F0811C00002014000020160000208B
:1019A0002DE9F04105460E46144648E020787E2891
:1019B00025DC284624490968898808442349098880
:1019C000884205DD002520480068C088304486B282
:1019D00030461D490968C98808441D49098888425C
:1019E00001DD00250026227831462846FFF732FF28
:1019F000154800688088284485B2641C1FE028468A
:101A0000103012490988884203DD002506F11000D4
:101A100086B2304610300E490988884201DD002523
:101A200000262788380200EB272087B23A46314645
:101A30002846FFF7CDFE05F1100085B2A41C2078E2
:101A40000028B3D1BDE8F0811C0000201400002064
:101A50001600002000B597B03C2108A8FEF7CEFB89
:101A60001C2101A8FEF7CAFB0121080200F034FE88
:101A7000012001900420039080060790002002902E
:101A800004900590069006200890002009900820F8
:101A90000A9010200B9000200C900E900F90109048
:101AA0004FF480501190002012901390149001A8D0
:101AB0001590169008A8FFF7C3FB01210620FFF739
:101AC000A5FB17B000BD70B504460D4600262C20BE
:101AD00000F008FC00BF03E0284600F007FC761C7D
:101AE000A642F9D370BD000008B501214FF4B070D3
:101AF00000F012FE03208DF8020018208DF803007C
:101B00004FF48040ADF8000069465B48FFF722FDC6
:101B10004FF40040ADF8000069465748FFF71AFD42
:101B20000120ADF8000069465348FFF713FD02207D
:101B3000ADF8000069465048FFF70CFD8020ADF875
:101B4000000069464D48FFF705FD4FF48070ADF881
:101B5000000069464948FFF7FDFC4FF40070ADF8FE
:101B6000000069464548FFF7F5FC4FF48060ADF88A
:101B7000000069464148FFF7EDFC4FF40060ADF806
:101B8000000069463D48FFF7E5FC4FF48050ADF892
:101B9000000069463948FFF7DDFC4FF40050ADF80E
:101BA000000069463548FFF7D5FC4FF48040ADF89A
:101BB000000069463148FFF7CDFC4FF40040ADF816
:101BC000000069462D48FFF7C5FC4FF48070ADF862
:101BD000000069462848FFF7BDFC4FF40070ADF8DF
:101BE000000069462448FFF7B5FC4FF48060ADF86B
:101BF000000069462048FFF7ADFC03208DF8020085
:101C000018208DF803001020ADF8000069461A482E
:101C1000FFF7A0FC2020ADF8000069461648FFF74A
:101C200099FC4FF48050ADF8000069461448FFF766
:101C300091FC0420ADF8000069461048FFF78AFCCB
:101C400010208DF8030003208DF802004FF400608F
:101C5000ADF8000069460A48FFF77CFC10208DF8BB
:101C6000030003208DF802004020ADF80000694613
:101C70000348FFF76FFC08BD001401400018014045
:101C80000020014010B50446072C00DD10BD31488E
:101C90000470204604EBD0714910A4EB410139B91E
:101CA000F0202D4908804FF4A0702C49088006E0F0
:101CB0004FF4A07028490880F02028490880362079
:101CC00000F010FB2648008849F24131884205D1D6
:101CD000082141EA441000F009FB0AE0204800888E
:101CE00048F25251884204D1002141EA441000F0E8
:101CF000FDFA2A2000F0F6FA002000F0F7FA0020A2
:101D000000F0F4FA14490988491EC1F3072000F0D5
:101D1000EDFA11490978491EC8B200F0E7FA2B2004
:101D200000F0E0FA002000F0E1FA002000F0DEFA16
:101D30000A490988491EC1F3072000F0D7FA07496C
:101D40000978491EC8B200F0D1FA2C2000F0CAFA76
:101D500000BF9BE7180000201400002016000020A0
:101D60001A00002010B5FFF7BFFEFFF773FE012039
:101D7000FFF7FEFC00F0A0FA00F038F80248007807
:101D8000FFF780FF10BD0000180000202DE9F04192
:101D900004460D4616461F462A2000F0A3FA2012DC
:101DA00000F0A4FAE0B200F0A1FAA119491EC1F3B3
:101DB0000F2000F09BFAA119491EC8B200F096FA54
:101DC0002B2000F08FFA281200F090FAE8B200F011
:101DD0008DFAE919491EC1F30F2000F087FAE919BD
:101DE000491EC8B200F082FABDE8F08110B500F0DB
:101DF00025FAFE4908800846008849F241318842A8
:101E00007ED1CF2000F06EFA002000F06FFA812022
:101E100000F06CFA302000F069FAED2000F062FA70
:101E2000642000F063FA032000F060FA122000F052
:101E30005DFA812000F05AFAE82000F053FA85207C
:101E400000F054FA102000F051FA782000F04EFA19
:101E5000CB2000F047FA392000F048FA2C2000F09F
:101E600045FA002000F042FA342000F03FFA062044
:101E700000F03CFAF72000F035FA202000F036FAA6
:101E8000EA2000F02FFA002000F030FA002000F0E5
:101E90002DFAB12000F026FA002000F027FA1B20CE
:101EA00000F024FAB62000F01DFA0A2000F01EFA15
:101EB000A22000F01BFAC02000F014FA352000F038
:101EC00015FAC12000F00EFA112000F00FFAC5201B
:101ED00000F008FA452000F009FA452000F006FA63
:101EE000C72000F0FFF9A22000F000FAF22000F075
:101EF000F9F9002000F0FAF9262000F0F3F900E0EB
:101F000096E0012000F0F2F9E02000F0EBF90F205C
:101F100000F0ECF9262000F0E9F9242000F0E6F9C1
:101F20000B2000F0E3F90E2000F0E0F9092000F0AA
:101F3000DDF9542000F0DAF9A82000F0D7F94620A6
:101F400000F0D4F90C2000F0D1F9172000F0CEF900
:101F5000092000F0CBF90F2000F0C8F9072000F0AD
:101F6000C5F9002000F0C2F9E12000F0BBF9002023
:101F700000F0BCF9192000F0B9F91B2000F0B6F907
:101F8000042000F0B3F9102000F0B0F9072000F0B1
:101F9000ADF92A2000F0AAF9472000F0A7F939206E
:101FA00000F0A4F9032000F0A1F9062000F09EF94A
:101FB000062000F09BF9302000F098F9382000F05E
:101FC00095F90F2000F092F9362000F08BF9C82027
:101FD00000F08CF92A2000F085F9002000F086F945
:101FE000002000F083F9002000F080F9EF2000F0DD
:101FF0007DF92B2000F076F9002000F077F9002021
:1020000000F074F9012000F071F93F2000F06EF942
:102010003A2000F067F9552000F068F9112000F02F
:1020200061F97348FFF7CAFB292000F05BF901E171
:102030006E48008848F252518842F8D1CF2000F013
:1020400051F9002000F052F9C12000F04FF9302082
:1020500000F04CF9ED2000F045F9642000F046F95D
:10206000032000F043F9122000F040F9812000F035
:102070003DF9E82000F036F9852000F037F910200E
:1020800000F034F9782000F031F9CB2000F02AF983
:10209000392000F02BF92C2000F028F9002000F066
:1020A00025F9342000F022F9022000F01FF9F72072
:1020B00000F018F9202000F019F9EA2000F012F9D8
:1020C000002000F013F9002000F010F9C02000F00B
:1020D00009F9212000F00AF9C12000F003F91120CC
:1020E00000F004F9C52000F0FDF82D2000F0FEF806
:1020F000332000F0FBF8362000F0F4F8002000F068
:10210000F5F83A2000F0EEF8552000F0EFF8B12095
:1021100000F0E8F8002000F0E9F8172000F0E6F8F9
:10212000B62000F0DFF80A2000F0E0F8A22000F06E
:10213000DDF8F62000F0D6F8012000F0D7F83020C6
:1021400000F0D4F8F22000F0CDF8002000F0CEF836
:10215000262000F0C7F8012000F0C8F8E02000F0C9
:10216000C1F8D02000F0C2F8002000F0BFF8022033
:1021700000F0BCF8072000F0B9F80B2000F0B6F82A
:102180001A2000F0B3F8312000F0B0F8542000F02D
:10219000ADF8402000F0AAF8292000F0A7F812209E
:1021A00000F0A4F8122000F0A1F8122000F09EF830
:1021B000172000F09BF8E12000F094F8D02000F008
:1021C00095F8002000F092F8022000F08FF8072028
:1021D00000F08CF8052000F089F8252000F086F842
:1021E0002D2000F083F8442004E000001A000020B5
:1021F000FCBF020000F07AF8452000F077F81C20C0
:1022000000F074F8182000F071F8162000F06EF855
:102210001C2000F06BF81D2000F068F8112000F081
:1022200061F80548FFF7CAFA292000F05BF82C2076
:1022300000F058F810BD0000FCBF020010B50024EB
:10224000042000F04FF800BF4FF0DA40008800BFD4
:102250004FF0DA40008800F02BF804464FF6FF708C
:1022600000EA042400F024F8044348F25250844267
:1022700001D1204610BDD32000F034F800BF4FF04C
:10228000DA40008800BF4FF0DA40008800F010F814
:1022900004464FF6FF7000EA042400F009F80443F6
:1022A00049F24130844201D12046E3E70020E1E7D2
:1022B0004FF0DA400088704710B54FF400610848CD
:1022C000FFF725FA40F6FF20FFF778FA4FF4006198
:1022D0000348FFF71EFA40F6FF20FFF76FFA10BD24
:1022E000002001404FF0D841088070474FF0DA419C
:1022F0000880704708B50121142000F00DFA012074
:10230000ADF8000004208DF8030001208DF80200D4
:1023100069460948FFF71EF94FF40050ADF8000078
:1023200004208DF8030001208DF80200694603485F
:10233000FFF710F908BD000000080140001001403F
:1023400001480068704700001C000020024A10800D
:10235000024A118070470000200000202200002067
:1023600001490860704700001C00002008B50121E9
:10237000802000F0D1F94FF40040ADF80000282093
:102380008DF8030069460248FFF7E4F808BD000035
:10239000001C014010B54FF400410448FFF7AEF9AE
:1023A000012801D1002010BD0120FCE7001C0140E4
:1023B00008B50121082000F0AFF92020ADF8000099
:1023C00010208DF8030003208DF8020069460F48A5
:1023D000FFF7C0F80120ADF8000069460B48FFF791
:1023E000B9F80220ADF8000069460848FFF7B2F8D6
:1023F00020210648FFF78DF901210448FFF789F9EC
:1024000002210248FFF785F908BD0000000C0140D9
:1024100008B50121982000F07FF94FF44070ADF825
:10242000000010208DF8030001208DF8020069469D
:102430001B48FFF78FF84FF44050ADF80000102014
:102440008DF8030001208DF8020069461548FFF75A
:1024500081F88020ADF8000010208DF803000120E5
:102460008DF8020069461048FFF774F84FF4807148
:102470000B48FFF74CF94FF400710948FFF747F993
:102480004FF480510748FFF742F94FF400510548D7
:10249000FFF73DF980210448FFF739F908BD000036
:1024A000000C0140001C01400010014010B5FEF777
:1024B00057FD4FF400511948FFF72BF94FF4FA601C
:1024C00001F0E6FA16A001F073FE4FF47A7001F005
:1024D000DFFA15A001F06CFE4FF47A7001F0D8FA23
:1024E00015A001F065FE41F2883001F0D1FA1C48D8
:1024F00001F05EFE4FF47A7001F0CAFA194801F05B
:1025000057FE40F6B83001F0C3FA17A001F050FEB4
:102510004FF47A7001F0BCFA10BD000000200140B9
:1025200041540D0A0000000041542B43574D4F44C5
:10253000453D310D0A00000041542B43574A41509C
:102540003D2254502D4C494E4B5F37444136222C8E
:10255000223135323136323136323136220D0A00EF
:1025600040C900080CCA000841542B4D5154545323
:1025700055423D302C222F6B3038666565506947D7
:102580004B6A2F544B53544D33322F757365722F52
:10259000627574746F6E222C310D0A0000BFFEE765
:1025A000704708B54FF4C06000F05CF831208DF83A
:1025B000000000208DF801008DF8020001208DF848
:1025C0000300684600F016F808BD08B54FF4C06077
:1025D00000F048F817208DF8000002208DF8010067
:1025E00001208DF802008DF80300684600F002F823
:1025F00008BD000070B5002100230F22C47804B389
:10260000154C246804F4E064C4F5E064210AC1F1C7
:102610000403CA40447804FA03F184781440214347
:1026200009010E4C0678A155047804F01F05012419
:10263000AC4005786D11AD0005F1E025C5F800410D
:1026400009E0047804F01F050124AC40044D06782D
:10265000761145F8264070BD0CED00E000E400E086
:1026600080E100E002490143024A11607047000026
:102670000000FA050CED00E010B51921034801F047
:1026800061FB01200249086010BD0000000C004001
:10269000540000207047000008B50121080200F036
:1026A0003BF80120ADF8000028208DF803006946B2
:1026B0000148FEF74FFF08BD0020014010B5012181
:1026C0000448FFF71BF8012801D1002010BD0120AC
:1026D000FCE700000020014029B1064A526902438C
:1026E000044B5A6104E0034A52698243014B5A6128
:1026F000704700000010024029B1064AD269024327
:10270000044BDA6104E0034AD2698243014BDA6187
:10271000704700000010024029B1064A9269024346
:10272000044B9A6104E0034A92698243014B9A6127
:10273000704700000010024030B500210022002444
:1027400000232D4D6D6805F00C0121B1042905D041
:10275000082923D105E0294D056022E0274D0560B9
:102760001FE0254D6D6805F47012234D6D6805F46A
:102770008034022505EB92421CB9214D554305607A
:102780000BE01D4D6D6805F400351DB11C4D554322
:10279000056002E0194D5543056002E0174D0560E4
:1027A00000BF00BF144D6D6805F0F0010909154D1B
:1027B0006B5C0568DD4045600F4D6D6805F4E061B8
:1027C000090A104D6B5C4568DD4085600A4D6D68F7
:1027D00005F46051C90A0B4D6B5C4568DD40C5606E
:1027E000054D6D6805F44041890B074D6B5CC5686C
:1027F000B5FBF3F5056130BD0010024000127A0010
:1028000000093D0062000020720000207CB50546F2
:10281000002400200090019000F0E2F800F0007029
:1028200010B10E2420467CBD3D49098888B2694616
:10283000FEF77AFD04460CB12046F4E7012D36D1AF
:10284000019800F4802000282ED03548008800042C
:102850003449086037204860402088600020C86004
:10286000A8020861084600F0F9F83720FEF786F85C
:1028700004460CB12046D6E702202A49086006200B
:102880004860402088600020C8604FF48060086184
:10289000084600F0E3F80620FEF770F804460CB195
:1028A0002046C0E72046BEE725242046BBE7019826
:1028B00000F4803078B31A48008800041949086091
:1028C00037204860402088600020C8604FF4806056
:1028D0000861084600F0C2F83720FEF74FF80446BA
:1028E0000CB120469FE700200E4908600620486092
:1028F000402088600020C8604FF48060086108466E
:1029000000F0ACF80620FEF739F804460CB120467A
:1029100089E7204687E7FFE72524204683E7000074
:10292000040000202801002001498863704700004E
:102930000080014001498863704700000080014029
:102940000149086070470000A0003042014908605A
:10295000704700008C05304200210A4B02685A6221
:1029600042689A621A46D16A21F0F701D0E902233F
:102970001A4303691A4343691A431143014AD16256
:102980007047000000800140002006490860486050
:102990008860C86048628862C86203488863002013
:1029A000C863704700800140FF07C000014800690C
:1029B000C0B270470080014001460020034A526BBC
:1029C0000A400AB1012000E0002070470080014069
:1029D0000248006800F003007047000000800140DA
:1029E00008B5014600200090024808440090009875
:1029F000006808BD1480014010B500F047FC10BD10
:102A000029B1064AD26B0243044BDA6304E0034A5D
:102A1000D26B8243014BDA637047000000800140B3
:102A200000210A4A516847F6FF629143027D83689C
:102A30001A4343681A43C3681A4303681A43036975
:102A40001A431143014A5160704700000080014061
:102A50000148006870470000808001400021094B58
:102A600002689A601A46D1686FF30A01D0E901231F
:102A70001A43C3681A4303691A431143014AD160D8
:102A800070470000008001400549096821F00301FA
:102A9000034A116011460968014311607047000044
:102AA0000080014010B50248FEF70CF910BD00008F
:102AB0000020001030B58BB005460C461348FEF7D9
:102AC000E7F800211248FEF7F1F81248009001954E
:102AD00000200290A0080390002004908020059020
:102AE0008000069080000790002008904FF400506E
:102AF000099000200A9069460548FEF7F9F801217F
:102B00000348FEF7D3F80BB030BD000000F0001012
:102B1000440402408080014030B58BB005460C462D
:102B20001348FEF7B5F800211248FEF7BFF8124827
:102B30000090019510200290A008039000200490BE
:102B4000802005908000069080000790002008906B
:102B50004FF40050099000200A9069460548FEF79E
:102B6000C7F801210348FEF7A1F80BB030BD000003
:102B700000F00010440402408080014070B504461B
:102B8000002521480068032802D12725284670BD6A
:102B90001D48006838B11C480068012803D01A4855
:102BA000006802282ED1B4F5805F02D1272528467F
:102BB000EDE7B4F5006F14D10120FFF727FE0546BD
:102BC00005BB012011490875002008604860886035
:102BD0004FF40060C860002008610846FFF720FF3E
:102BE00010E00020FFF712FE05465DB901200749FD
:102BF00008750020086048608860C8600861084661
:102C0000FFF70EFF2846C2E7000000201001002059
:102C1000F0B5014600200022BC4B1B7881F85630ED
:102C2000BB4B1B88A1F85430BA4B1B681A0E930992
:102C30000B70C2F383034B7002F003038B70B54B30
:102C40001B68C3F30742CA70B24B1B88C3F3072249
:102C50000A71B04B1A784A715B681A0E1301CB8067
:102C6000AC4B5B68C3F30742CB8843EA1213CB80BB
:102C700002F00F030B72A74B9B88C3F30722D30903
:102C80004B72C2F380138B72C2F34013CB72C2F348
:102C900000130B7300234B739C4B1B681BB19B4BA6
:102CA0001B68012B4FD193071B0D0B61994B1A79B0
:102CB0000B6943EA82030B61964B9B681A0E0B6902
:102CC00043EA92130B61C2F3C2030B7502F00703D0
:102CD0004B75904B9B68C3F3074253098B75C2F346
:102CE0008203CB7593075B0F0B768A4B1B89C3F36B
:102CF00007220B7E43EAD2130B760B695B1C002480
:102D0000C1E912340B7ED1E912649B1C012505FA3E
:102D100003F3DF17A6FB035C04FB03C306FB0733C7
:102D2000C1E912530C7A0123A3400B650027D1E9B6
:102D300012560B6DA5FB034C06FB03C305FB0733C3
:102D4000C1E912432DE0714B1B68022B29D1714B55
:102D50001A7993069B0A0B616E4B9B681A0E0B69DE
:102D600043EA02230B616B4B9B68C3F307420B6979
:102D700013430B61674B1B89C3F307220B695B1C71
:102D80004FF40074A3FB04344FF480660025A3FBCA
:102D9000067C04FB06C403FB0543C1E912737310F0
:102DA0000B65C2F3801301F8193F93065B0E4B705D
:102DB000584B1A7A4B7843EAD2134B7002F07F03D8
:102DC0008B70544BDB681A0ED309CB70C2F34113DE
:102DD0000B71C2F382034B7193071B0F8B714D4B29
:102DE000DB68C3F307428B7943EA92138B71C2F31A
:102DF0004013CB7100230B7202F001034B72454B61
:102E00009B89C3F30722D3098B72C2F38013CB7261
:102E1000C2F340130B73C2F300134B73C2F381036D
:102E20008B7302F00303CB733A4B1A7B53080B747A
:102E300001234B74384B1B681A0ECA741939364B70
:102E40001B68C3F307421402CC85334B1B88C3F3C2
:102E50000722CB8D1343CB852F4B1A7814060C63B6
:102E60005B681A0E0B6B43EA02440C632A4B5B68E7
:102E7000C3F307420B6B43EA02240C63264B9B8887
:102E8000C3F307220B6B13430B63234B1A793423D1
:102E90005A54214B9B681A0E35235A541E4B9B687B
:102EA000C3F3074214068C631B4B1B89C3F3072231
:102EB0008B6B43EA02448C63174B1A7A8B6B43EAA1
:102EC00002248C63144BDB681A0E8B6B13438B63E9
:102ED000114BDB68C3F307423C235B5C43EA1214EB
:102EE0003C235C5413071C0DCC870B4B9B89C3F30D
:102EF0000722CB8F1343CB87074B1A7B5408402301
:102F00005C54012441235C54F0BD0000000000200B
:102F100004000020880000209800002008B5002050
:102F20000090684600F074FA08B1FF2008BD0098D0
:102F3000C0F34320FAE710B50424FFF7EFFF04467F
:102F4000042C01D1002010BDFF2C01D10220FAE792
:102F50000120F8E710B50024FFF723FBFEF7B2FAD3
:102F6000FFF712FD00F0CEF804460CB1204610BD6C
:102F700000F02AF804460CB12046F8E70120104979
:102F800008750020086048608860C86008610846CD
:102F9000FFF746FD1CB90B48FFF73AFE044634B96B
:102FA0000849B1F85410080400F018FA044624B98E
:102FB0004FF40060FFF7E2FD04462046D7E700002B
:102FC00010010020B800002038B500240120009036
:102FD000FFF7FEFC10B92524204638BD44480068A0
:102FE000042828D000204349086002204860C020FF
:102FF00088600020C8604FF4806008610846FFF7D1
:103000002DFDFDF7CFFC04460CB12046E5E700207E
:10301000FFF7E6FC384908600420FFF7E1FC364979
:1030200048600820FFF7DCFC334988600C20FFF77C
:10303000D7FC3149C8602E48006858B12C48006858
:10304000012807D02A480068062803D028480068CD
:10305000022816D10020274908600320486040203C
:1030600088600020C8604FF4806008610846FFF760
:10307000F5FC69460320FDF7D7FC04460CB1204659
:10308000ABE71B48006804282ED0BDF800001B49A0
:103090000860BDF800000004164908600920486077
:1030A000C02088600020C8604FF480600861084636
:1030B000FFF7D4FCFDF776FC04460CB120468CE704
:1030C0000020FFF78DFC0E4908600420FFF788FC04
:1030D0000B4948600820FFF783FC094988600C20F1
:1030E000FFF77EFC0649C8600024204675E7000013
:1030F000000000202801002098000020040000208B
:10310000880000202DE9F04100240026002500273A
:10311000A046B220594908750020086048608860C0
:10312000C86008610846FFF77BFC0320FFF7ACFC92
:103130000120FFF705FC00205149086048608860C5
:10314000C8604FF4806008610846FFF787FCFDF710
:10315000FFFB044614B12046BDE8F0814FF4D57062
:103160004749086008204860402088600020C86007
:103170004FF4806008610846FFF770FCFDF7A2FC81
:1031800004462CB901203F4908604FF0804812E006
:1031900000203B49086037204860402088600020BC
:1031A000C8604FF4806008610846FFF757FC37207D
:1031B000FDF7E4FB044600203149086037204860F1
:1031C000402088600020C8604FF480600861084695
:1031D000FFF744FC3720FDF7D1FB0446002C4AD111
:1031E00036E000202649086037204860402088608B
:1031F0000020C8604FF4806008610846FFF72EFC8D
:103200003720FDF7BBFB04460CB12046A4E71E485F
:1032100048EA00001A490860292048604020886078
:103220000020C8604FF4806008610846FFF716FC74
:10323000FDF7DEFB04460CB120468DE70020FFF7CA
:10324000CFFB0646012080EAD67080F001076D1C96
:103250001FB94FF6FF708542C3D34FF6FF7085420A
:1032600002D31B24204677E706F08040061E02D0DA
:1032700002200449086020466EE70000100100208B
:1032800028010020000000200000108010B5114827
:10329000006801280BD100200F49886040F24C40A3
:1032A000C8600C20FDF76AFB0C49087002E00020A2
:1032B0000A4908704FF48070FFF73CFB00214FF47F
:1032C0008070FFF79DFB01200549086003480078E6
:1032D00010BD000008000020008001400C0000200C
:1032E000100000202DE9F047814614461D46DDE917
:1032F0000868002700203249087032490860012020
:103300003149086000203149C8623148006802280C
:1033100008D106020202002320462946FCF724FFBA
:1033200004460D462B48066010202A49486040207C
:1033300088600020C8604FF4806008610846FFF78D
:103340008DFB1020FDF71AFB074617B13846BDE884
:10335000F0874FF0FF302049086008FB06F0486016
:10336000902088600220C860002008610120486128
:103370000846FFF7F1FA1748046012201549486023
:10338000402088600020C8604FF4806008610846D3
:10339000FFF764FB1220FDF7F1FA07460FB138463C
:1033A000D5E701210802FFF72BFB0120FFF7CEFA3A
:1033B00008FB06F14846FFF77DFB3846C7E70000EB
:1033C0000C000020100000200800002000800140B8
:1033D00000000020280100203C01002070B50446B8
:1033E00000250A480460072008494860402088609A
:1033F0000020C8604FF4806008610846FFF72EFB8C
:103400000720FDF7BBFA0546284670BD28010020BD
:1034100070B5044600250A48008800040949886000
:1034200040F24D40C8600D20FDF7A8FA05460DB1E9
:10343000284670BD0348406920602846F9E700002F
:10344000040000200080014010B5002400BFFFF7F9
:1034500029FB30B90748006818B9074800780028E8
:10346000F5D00548007810B10348007810BD20461B
:10347000FCE70000100000200C00002010B5002424
:1034800000BFFFF70FFB30B90948006818B90948B9
:1034900000780028F5D00748007810B1054800787A
:1034A00010BD40F2FF50FFF73FFA2046F8E700005A
:1034B000100000200C0000202DE9F843814615463D
:1034C0001E46DDE908780024002000904849087075
:1034D0004849086001204849086000204749C862FF
:1034E00047480068022808D1070202020023284644
:1034F0003146FCF739FE05460E464248076010206B
:1035000040494860402088600020C8604FF48060D7
:1035100008610846FFF7A2FA1020FDF72FFA0446CB
:1035200014B12046BDE8F8833748008800043549C7
:10353000086037204860402088600020C8604FF451
:10354000806008610846FFF789FA3720FDF716FA10
:1035500004460CB12046E5E72A48C0F80080172051
:1035600028494860402088600020C8604FF480608F
:1035700008610846FFF772FA1720FDF7FFF90446C5
:103580000CB12046CEE71F48056019201D49486050
:10359000402088600020C8604FF4806008610846C1
:1035A000FFF75CFA1920FDF7E9F904460CB1204653
:1035B000B8E74FF0FF301549086008FB07F0486096
:1035C000902088600020C86008610120486108469A
:1035D000FFF7C2F901210802FFF712FA0120FFF7F5
:1035E000B5F908FB07F14846FFF796FA204699E738
:1035F0000C00002010000020080000200080014086
:103600000000002028010020040000203C010020D0
:1036100008B501218020FFF77FF84FF48040ADF816
:10362000000028208DF8030069460248FDF792FF4C
:1036300008BD00000010014010B54FF4804104485F
:10364000FEF75CF808B9002010BD0120FCE700007F
:10365000001C014021B1028842F04002028004E0D7
:1036600002884FF6BF731A400280704770B5054656
:103670000C46164610211048FEF749F8032000F0CA
:103680007BF8C4F3074000F077F8C4F3072000F09C
:1036900073F8E0B200F070F804E0FF2000F06CF87E
:1036A00028706D1C301EA6F101018EB2F5D11021DB
:1036B0000148FEF72EF870BD0008014000B587B044
:1036C00001210803FFF728F801210420FFF724F85F
:1036D0001020ADF8040003208DF8060010208DF8AE
:1036E000070001A92248FDF735FF2020ADF80400AE
:1036F00018208DF8070001A91D48FDF72BFF402079
:10370000ADF8040001A91A48FDF724FF8020ADF8A8
:10371000040001A91648FDF71DFF10211448FDF70C
:10372000F8FF0020ADF808004FF48270ADF80A00F1
:103730000020ADF80C000220ADF80E000120ADF81D
:1037400010004002ADF812000820ADF8140000206F
:10375000ADF816000720ADF8180002A9054800F0E2
:1037600055F801210348FFF775FF07B000BD0000C1
:10377000000801400030014010B504464FF480506D
:10378000194908600AE018490868411E164A116084
:1037900020B9002000F058F8C0B210BD0221134833
:1037A00000F026F80028EED02146104800F02CF852
:1037B0004FF480500C4908600AE00B490868411E2C
:1037C000094A116020B9012000F03EF8C0B2E4E7D8
:1037D0000121064800F00CF80028EED0034800F064
:1037E00010F8C0B2D9E700005000002000300140BE
:1037F0000246002013890B400BB1012000E000209D
:1038000070470146888970478181704710B5002252
:10381000028802F441520B884C8823438C8823434E
:10382000CC8823430C8923434C8923438C8923432D
:10383000CC8923431A430280838B4FF2FF742340C9
:1038400083830B8A038210BD10B50446214602A073
:1038500000F0F4FD002010BD3C3C2D464C41534887
:103860002D4552524F522D3E3E2053504920B5C84F
:10387000B4FDB3ACCAB1216572726F72436F6465F7
:10388000203D2025640A0000704710B500F002F8C2
:1038900010BD00000CB50020019000903348006876
:1038A00040F480303149086000BF3048006800F4BF
:1038B000003000900198401C0190009818B90198C0
:1038C000B0F5A06FF1D12948006800F4003010B1C4
:1038D0000120009001E0002000900098012843D1D1
:1038E0002348006840F0100021490860084600683D
:1038F00020F0030008600846006840F002000860FD
:103900001A484068194948600846406848600846B7
:10391000406840F4806048600846406820F47C10AD
:1039200048600846406840F4E8104860084600686F
:1039300040F08070086000BF0C48006800F0007024
:103940000028F9D00948406820F003000749486082
:103950000846406840F00200486000BF03484068E5
:1039600000F00C000828F9D10CBD00000010024046
:103970000020024000B589B001210420FEF7CCFEF2
:1039800001210820FEF7B8FE18208DF82300022040
:10399000ADF8200001208DF8220008A92048FDF78D
:1039A000D9FD01211F48FDF761FE0020ADF81A0086
:1039B000ADF81600C720ADF8180041F61F40ADF86D
:1039C000140005A9184800F0C1F90121164800F0BB
:1039D00042F90021144800F0B7F90121124800F023
:1039E00028F90121104800F02AF90020ADF8100054
:1039F0006020ADF804000020ADF80C000120ADF807
:103A000006000020ADF80A0001A9074800F048F9B7
:103A100001220021044800F0FDF809B000BD0000BB
:103A20000008014001002000000C00407047000029
:103A300010B51348006840F00100114908600846BD
:103A40004068104908400E494860084600680E4921
:103A500008400B4908600846006820F48020086090
:103A60000846406820F4FE0048604FF41F0088605C
:103A7000FFF70BFF4FF000600449086010BD000025
:103A8000001002400000FFF8FFFFF6FE08ED00E026
:103A90003EB5044601210846FEF72EFE0020ADF893
:103AA0000600ADF8020004EB84004000401E80B226
:103AB000ADF8040041F61F40ADF8000069464FF034
:103AC000804000F043F90121880700F0C4F801218B
:103AD000880700F0AEF800214FF0804000F034F984
:103AE0000121880700F0ABF800BF0121880700F032
:103AF000B4F80028F9D03EBD3EB504460121084681
:103B0000FEF7FAFD0020ADF80600ADF80200601ED9
:103B100080B2ADF804004720ADF8000069464FF0D0
:103B2000804000F013F90121880700F094F801218A
:103B3000880700F07EF800214FF0804000F004F983
:103B40000121880700F07BF800BF0121880700F001
:103B500084F80028F9D03EBD3EB50446012102207C
:103B6000FEF7CAFD0020ADF80600ADF8020004EB38
:103B700084004000401E80B2ADF8040041F61F40B2
:103B8000ADF8000069460A4800F0E0F80121084855
:103B900000F061F80121064800F04BF800210448CC
:103BA00000F0D2F80121024800F049F83EBD0000C3
:103BB0000004004010B50121064800F057F8012824
:103BC00006D1054800F0F4FA0121024800F034F86B
:103BD00010BD0000000400405802002008B501227A
:103BE00011460B4800F053F84FF4A060FEF73AFD81
:103BF0001D208DF8000001208DF803008DF80100D4
:103C000002208DF802006846FEF7F4FC08BD0000B3
:103C10000004004030B5002301248C40A3B2048C82
:103C20009C430484048C02FA01F5ADB22C43048455
:103C300030BDCA4302827047CA430282704721B135
:103C4000028842F00102028004E002884FF6FE730F
:103C50001A40028070478182704702460020138A12
:103C60000B400BB1012000E00020704730B5024648
:103C7000002000230024158A05EA0103958905EA3E
:103C8000010413B10CB1012000E0002030BD1AB1D5
:103C900083890B43838102E083898B43838170474F
:103CA00070B5002400220023058C4FF6EF763540D6
:103CB0000584028C8388048B48F6FF752C404FF6F0
:103CC000FF452C400D884FF6FF7606EA05252C436C
:103CD0004FF6DF752A400D8906EA05152A434D88FF
:103CE00006EA05152A43154DA84202D0144DA842F4
:103CF0001DD14FF67F752A404D894FF6FF7606EAB3
:103D000005152A434FF6BF752A408D8806EA05152A
:103D10002A434FF6FF352B404FF2FF752B408D891C
:103D200006EA85052B43CD8906EA85052B4383806A
:103D30000483CD880587028470BD0000002C0140FB
:103D40000034014001877047818470470022028857
:103D50001D4B98420ED01D4B98420BD0B0F1804FB6
:103D600008D01B4B984205D01A4B984202D01A4BF0
:103D7000984204D14FF68F731A404B881A43174B61
:103D8000984207D0164B984204D04FF6FF431A4092
:103D9000CB881A4302808B8883850B8803850A4B66
:103DA00098420BD0094B984208D00E4B984205D050
:103DB0000D4B984202D00D4B984201D10B7A0386ED
:103DC0000123838270470000002C01400034014031
:103DD0000004004000080040000C004000100040BB
:103DE00000140040004001400044014000480140F0
:103DF00010B586B0044601218804FEF77DFC012140
:103E00000820FEF789FC18208DF817004FF4806019
:103E1000ADF8140001208DF8160005A91A48FDF729
:103E200099FB04208DF817004002ADF81400012022
:103E30008DF8160005A91448FDF78CFB01940020AD
:103E4000ADF810000C20ADF80E000020ADF80C000D
:103E5000ADF80A00ADF8080001A90C4800F076FAA8
:103E6000012240F22551094800F04BFA012240F2AC
:103E70002441064800F045FA00F00AF80121034801
:103E800000F0BBF906B010BD000C01400048004036
:103E900008B54FF4A060FEF7E5FB27208DF8000081
:103EA00001208DF803008DF801008DF802006846AE
:103EB000FEF7A0FB08BD704730B599B02C49D1F88A
:103EC000FC00FCF761FA044622460B4629A168462D
:103ED00000F0C4FAFEF734FA002469462046FDF7E4
:103EE00005FD2349D1F80001FCF74EFA04462246AD
:103EF0000B4624A1684600F0B1FAFEF721FAC48807
:103F000069462046FDF7F2FCFEF744FA012809D184
:103F1000FEF716FAC0884004040C1EA12046FDF7E7
:103F2000E5FC08E0FEF70CFAC0884004040C1CA174
:103F30002046FDF7DBFC1DA10D486430FCF77BF942
:103F400050B9FEF7FDF9C08800EB400084B21AA119
:103F50002046FDF7CBFC09E0FEF7F2F9C08800EB44
:103F6000400084B217A12046FDF7C0FC19B030BD57
:103F700054010020CEC2B6C8203A20252E3166A1B9
:103F8000E6000000CAAAB6C8203A20252E316625D0
:103F900025000000CAD2CDE2B5C6A3BAB9D8000048
:103FA000CAD2CDE2B5C6A3BABFAA00005C22526154
:103FB000696E696E675C2200B5B1C7B0CFC2D3EA43
:103FC00000000000B5B1C7B0CEDED3EA00000000AB
:103FD00010B529A12D48FCF72EF978B9FEF7B0F9F4
:103FE00000242BA12046FDF781FC80212C48FDF701
:103FF00090FB01212A48FDF78CFB0EE0FEF7A0F9AB
:10400000002428A12046FDF771FC80212448FDF7FB
:104010007EFB01212248FDF77AFB26A11B48643074
:10402000FCF709F938B9FEF78BF9C48825A12046B9
:10403000FDF75CFC06E0FEF783F9C48824A1204666
:10404000FDF754FC25A111483238FCF7F4F848B9C3
:10405000FEF776F9C0884004040C23A12046FDF742
:1040600045FC08E0FEF76CF9C0884004040C21A16F
:104070002046FDF73BFC10BD5C2246697265207747
:1040800061726E696E675C2200000000860100208C
:10409000BBF0D4D6BEAFB8E6A3BABFAA00000000FA
:1040A00000100140BBF0D4D6BEAFB8E6A3BAB9D871
:1040B000000000005C225368616B65696E675C22DA
:1040C00000000000D3D0C8CBC7C3C3C500000000A8
:1040D000CEDEC8CBC7C3C3C5000000005C224E6F54
:1040E000626F64795C220000C3C5BFDACEDEC8CB44
:1040F00000000000C3C5BFDAD3D0C8CB0000000069
:1041000010B540F22551264800F0D1F8012824D1FD
:10411000234800F087F9C4B26CB920212148B0F9D6
:104120000224B0F80204401C00B21E4BA3F80204A3
:10413000184681540BE01B48B0F90214B0F8020491
:10414000401C00B2174AA2F802041046445440F240
:104150002551134800F042F820E040F22441104875
:1041600000F0A5F8D0B10E4800880D48001D008869
:1041700000200C49B1F902140A4A505411460AA011
:1041800000F05CF900200749A1F80204012081F841
:10419000000440F22441024800F020F810BD000065
:1041A000004800407C14002025730D0A0000000028
:1041B00010B504460BE000BF4021074800F06AF844
:1041C0000028F9D014F8011B034800F030F92078DA
:1041D0000028F0D110BD00000048004010B50022BA
:1041E000002340F66A14A14200D100BF0A12012444
:1041F0009440A3B2DC43048010BD21B1828942F413
:104200000052828104E082894DF6FF731A40828158
:104210007047000000B585B001210420FEF77CFA4C
:1042200001218803FEF778FA4FF40070ADF8100012
:1042300018208DF8130003208DF8120004A91348EC
:10424000FDF788F94FF48060ADF8100004208DF878
:10425000130004A90D48FDF77DF94FF4E1300090FB
:104260000020ADF80400ADF80600ADF80800ADF888
:104270000C000C20ADF80A006946054800F066F80D
:1042800001210348FFF7B9FF05B000BD0008014058
:104290000038014002460020B1F5007F00D100BF88
:1042A00013880B400BB1012000E00020704770B56F
:1042B0000246002400230025002040F66A16B14281
:1042C00000D100BFC1F3421501F01F03012606FA19
:1042D00003F3012D02D19689334006E0022D02D16D
:1042E000168A334001E0968A33400C12012606FA02
:1042F00004F41688344013B10CB1012000E0002012
:1043000070BDF0B50346002400260025002040F6CD
:104310006A17B94200D100BF1846C1F3421401F038
:104320001F06012707FA06F5012C01D10C3004E025
:10433000022C01D1103000E014301AB107682F436D
:10434000076002E00768AF430760F0BD2DE9F04762
:1043500086B005460E460024A24600BFA1460027AF
:10436000B08900B100BF2F462C8A4CF6FF70044084
:10437000F08804432C82AC894EF6F3100440B088D8
:1043800031890843718908430443AC81AC8A4FF6F4
:10439000FF400440B0890443AC8201A8FEF7CCF989
:1043A0001F48874202D1DDF810A001E0DDF80CA023
:1043B000A88900F4004040B10AEBCA0000EB0A10E3
:1043C00031684900B0FBF1F807E00AEBCA0000EBE6
:1043D0000A1031688900B0FBF1F86420B8FBF0F0F6
:1043E00004012009642101FB1089A88900F4004020
:1043F00040B1322000EBC900B0FBF1F000F0070043
:10440000044308E0322000EB09106421B0FBF1F016
:1044100000F00F0004432C8106B0BDE8F0870000D7
:104420000038014001468888C0F308007047C1F396
:1044300008028280704700BFFEE700000FB4054B02
:1044400010B503A9044A029800F0EEF810BC5DF81C
:1044500014FB000005690008780000200FB4084B29
:1044600010B504A902AA039800F0DEF8044602A9D8
:10447000002000F070FC204610BC5DF814FB00002A
:10448000574D000802E008C8121F08C1002AFAD1DF
:1044900070477047002001E001C1121F002AFBD1C4
:1044A000704700002DE9FF5F82B00021DDE9043094
:1044B000020DDDF840B0034318D044F61050A2F2CC
:1044C000FF3242431514119801281FD0A5EB0B00B1
:1044D000401C5FEA000A4FF000064E4FDFF83891AB
:1044E000B046504615D5CAF1000413E011980124D6
:1044F0004AA3012801D16FEA0B010298119AC0E981
:104500000031C0E9024206B0BDE8F09FCBF10000E7
:10451000DFE704460021404A491842EB0450CDE948
:10452000001012E0E00707D032463B4640464946BD
:10453000FCF750F88046894632463B4610461946FD
:10454000FCF748F806460F466410002CEAD1DDE976
:104550000401DDE90023BAF1000F06DAFCF73AF8AE
:1045600042464B46FCF736F805E0FCF7A5F8424614
:104570004B46FCF7A1F804460E460022284BFCF7F8
:1045800023F903D84FF0FF30014607E00022254B06
:1045900020463146FBF777FFFCF7FDF8102409E0D1
:1045A000002C0ADB0A220023FBF7DEFD039B3032DE
:1045B0001A55641E50EA0102F2D1641C039AC4F138
:1045C00011031444119A012A03D0012208430DD18A
:1045D0000AE0084304D000204FF0110B119072E75D
:1045E000A3EB0B056D1E0DE05B4504DD4FF00002F3
:1045F00005F1010504E003DA4FF00002A5F1010521
:10460000002AECD002981199C0E90231C0E90045B6
:1046100079E70000000014400000F03F3000000087
:104620000000F0430000E03F2DE9FF4F95B09B46AE
:104630008946064600250FE2252877D10024274623
:10464000F84A0121059400E0044316F8013F203B9D
:1046500001FA03F01042F7D130782A2811D06FF018
:104660002F033078A0F13002092A16D8059A44F0B9
:10467000020402EB820203EB42021044761C059016
:10468000EFE759F8042B0592002A03DA504244F46C
:104690000054059044F00204761C30782E2816D180
:1046A00016F8010F44F004042A280DD06FF02F02F1
:1046B0003078A0F13003092B09D807EB870302EB10
:1046C0004303C718761CF3E759F8047B761C30784F
:1046D0006C280FD006DC4C2817D068280DD06A282B
:1046E00014D104E0742810D07A280FD10DE044F4DE
:1046F00000140AE044F4801401E044F44014727899
:10470000824202D104F58014761C761C307866282B
:104710000BD013DC582877D009DC002875D0452849
:10472000F6D04628F4D047281AD19DE118E0632836
:1047300035D0642879D0652812D195E1702873D0DE
:1047400008DC6728F1D069286FD06E280DD06F285B
:1047500006D1B5E073282CD0752875D0782874D090
:104760005A46179990476D1C75E1C4F30250022810
:1047700009D003280DD0D9F8001004280DD00D6001
:1047800009F1040967E1D9F80010EA17C1E90052FC
:10479000F6E7D9F800100D80F2E70D70F0E719F890
:1047A000041B8DF8001000208DF80100EA4601205E
:1047B00003E059F804AB4FF0FF3061074FF0000100
:1047C00002D40DE008F101018846B9420FDA8045B4
:1047D000F8DB1AF808100029F4D108E008F101010B
:1047E00088468142FADB1AF808100029F6D10598AC
:1047F0005B46A0EB080721463846179A00F094FA6A
:10480000284400EB080507E04DE029E10DE01AF827
:10481000010B5A4617999047B8F10108F7D25B4649
:1048200021463846179A13E142E00A220092C4F367
:1048300002524FF0000A022A08D059F804CB032A8A
:104840004FEAEC710AD00DE029E02AE009F10701F6
:1048500021F00702F2E802C1914609E00FFA8CFC50
:104860004FEAEC71042A03D14FFA8CFC4FEAEC7149
:10487000002907DA0A460021DCF1000C61EB020195
:104880002D2202E0220504D52B228DF804200122DE
:1048900003E0E20701D02022F7E7904659E00A2121
:1048A00002E010220DE010214FF0000A00910BE011
:1048B00010224FF0000A44F004040827009203E09D
:1048C00008224FF0000A0092C4F30252022A05D0D7
:1048D00059F804CB0021032A08D009E009F10701A7
:1048E00021F00702F2E802C1914605E01FFA8CFCB4
:1048F000042A01D10CF0FF0C4FF00008220728D544
:10490000702806D0009B83F0100353EA0A0305D0F9
:104910000EE040228DF80420012208E05CEA01024A
:1049200006D030228DF804208DF805000222904632
:10493000009B83F0080353EA0A030AD15CEA0102F0
:1049400001D1620705D530228DF804204FF001080F
:104950007F1E582804D034A003900EA802900DE0CA
:1049600036A0F9E753466046009AFBF7FDFB844604
:104970000398825C0298401E029002705CEA01007B
:10498000F0D1029806A9081A00F1200A600702D5A2
:1049900024F4803400E00127574502DDA7EB0A002C
:1049A00000E0002000EB0A01009005984144401A05
:1049B0000590E00306D45B462146179A059800F05F
:1049C000B3F90544002706E001A85A46C05D1799CF
:1049D00090476D1C7F1C4745F6DBE0030CD55B461A
:1049E0002146179A059800F09FF9054404E030200D
:1049F0005A46179990476D1C0099481E009000294F
:104A0000F5DC08E0029802995A460078491C0291A8
:104A1000179990476D1CBAF10001AAF1010AF1DC67
:104A200065E1000009280100303132333435363772
:104A300038396162636465660000000030313233EA
:104A4000343536373839414243444546000000008A
:104A500000F058F90544761C307800287FF4ECAD5E
:104A600019B02846BDE8F08F620700D4062709F187
:104A7000070222F0070CFCE80223E14603F000489D
:104A80005FEA080C02D00FF2702C0DE05FEA045CC4
:104A900002D50FF2682C07E05FEAC47C02D00FF267
:104AA000602C01E0AFF2700C4FF0FF3823F00043B0
:104AB000CDF850C065280CD006DC452809D0462822
:104AC0001DD047283DD13DE0662818D067287ED10B
:104AD00038E00021112F01DB112000E0781CCDE926
:104AE000000106A90EA8FFF7DDFCDDE90F010E9A13
:104AF00003910021009207F1010A04914DE04FF06B
:104B000000400097CDE9011006A90EA8FFF7CAFCE6
:104B1000DDE90F0203920E9B11990022DDF80CA033
:104B20000093049211B9791C00EB010AB7EB0A005B
:104B300004D4C0F1FF3007F1010A0490AAEB07008A
:104B4000019044E0012F00DA01270021112F01DD3F
:104B5000112000E03846CDE9000106A90EA8FFF7B4
:104B6000A1FCDDE90F010E9A03910021049100924E
:104B7000BA4621070CD40399514500DA8A46BAF1A6
:104B8000010F05DD009AAAF10101515C302908D01E
:104B9000B84202DA10F1040F06DA0121CDE9011062
:104BA00015E0AAF10101E9E7002805DC04990144B8
:104BB0000491AAEB000102E0411C514500DD8A4648
:104BC0000499401A401C01904FF0004002902007C9
:104BD00004D40198504501DBCDF8048000208DF805
:104BE0004F0002980DF14F07B0F1004F25D02B2058
:104BF0000E9002984FF0020800280CDA4042029012
:104C00002D200E9007E00A210298FBF7D0FB3031EF
:104C1000029007F8011DB8F10001A8F10108F2DCCB
:104C200002980028EFD1791E0E980870307800F0B5
:104C3000200040F0450007F8020D12A8C01B00F14B
:104C400007081498007800B1012000EB0A010198D0
:104C500001EBE07105984144401A401E0590E003C5
:104C600006D45B462146179A059800F05DF8054486
:104C70001498007818B15A46179990476D1CE003B4
:104C800024D55B462146179A059800F04DF8054457
:104C90001CE00498002807DBDDE90301884203DDFE
:104CA0000098405C179901E0179930205A469047C8
:104CB000049805F10105401C04900198401E0190E4
:104CC00004D12E205A46179990476D1CBAF1000165
:104CD000AAF1010ADDDC05E017F8010B5A46179925
:104CE00090476D1CB8F10001A8F10108F4DC5B46A7
:104CF0002146179A0598ABE62D0000002B00000016
:104D0000200000002DE9F041044600251E4617460C
:104D1000880404D405E039462020B0476D1C641E89
:104D2000F9D52846BDE8F0812DE9F041044600257B
:104D30001E469046C80301D5302700E0202788048E
:104D400004D505E041463846B0476D1C641EF9D5D0
:104D50002846BDE8F0810A68531C0B60107070474C
:104D600002460020CB1C23F00301136F8B4205D3B6
:104D7000136F5B1A1367D06E4318D36670472DE923
:104D8000F05F04468846267B2768656895F800A092
:104D900000208346814600BF36BB67B9A5684FF443
:104DA000007229462046636F9847074627B96FF07F
:104DB0000100BDE8F09F6D1C7F1EBBF1000F0AD003
:104DC0004FF0000B287810B16FF00500F1E7FF20DD
:104DD0008246287007E095F800A0BAF1FF0F02D1D3
:104DE0004FF0010B0BE080264FEA49090AEA060062
:104DF00008B109F101097610A8F1010800BFB8F166
:104E0000000FC9D12673276065604846D1E70000CE
:104E10002DE9F04F87B00C464FF4B55BCDF818B0D4
:104E200041F2511BCDF814B042F6CF1BCDF810B0B3
:104E300041F6905BCDF80CB04FF0000BCDF800B010
:104E400080E0D0F800C0D0F84080D0F88090D0F852
:104E5000C0100CEB090AACEB090BCDF808B0A8EBBD
:104E6000010B4FF4B55E0BFB0EFB4FEA2B374144B1
:104E70007F1A0AEB010CAAEB0101DDF808B007EB81
:104E80000B08DDF808B0ABEB0709D0F8E050036A77
:104E9000D0F8A060026EA3EB050A5F19A6EB020B27
:104EA000CDF808B03244A7EB020B0BFB0EFB4FEA28
:104EB0002B333A44DDF808B0D34441F6905E0BFB47
:104EC0000EFB4FEA2B3BCDF804B041F2511B0AFB1D
:104ED0000BFEDDF804B0ABEB2E3542F6CF1EDDF84D
:104EE00008B00BFB0EFEDDF804B0ABEB2E3BABEBDA
:104EF00002069B1BED1A0CEB020BC0F800B0ACEBEA
:104F0000020BC0F8E0B008EB060BC0F820B0A8EB2D
:104F1000060BC0F8C0B009EB030BC0F840B0A9EB1A
:104F2000030BC0F8A0B001EB050BC0F860B0A1EB1B
:104F3000050BC0F880B0001DDDF800B00BF1010BCF
:104F4000CDF800B0DDF800B0BBF1080FFFF479AF89
:104F500020384FF0000BCDF800B0A2E0D0F800B040
:104F60000BF5004CD0F80880D0F8109081690CEB5C
:104F7000090AACEB090BCDF808B0A8EB010B4FF414
:104F8000B55E0BFB0EFB4FEA2B3741447F1A0AEB51
:104F9000010CAAEB0101DDF808B007EB0B08DDF806
:104FA00008B0ABEB0709C56943684669C268A3EB63
:104FB000050A5F19A6EB020BCDF808B03244A7EB47
:104FC000020B0BFB0EFB4FEA2B333A44DDF808B023
:104FD000D34441F6905E0BFB0EFB4FEA2B3BCDF822
:104FE00004B041F2511B0AFB0BFEDDF804B0ABEB41
:104FF0002E3542F6CF1EDDF808B00BFB0EFEDDF8B5
:1050000004B0ABEB2E3BABEB02069B1BED1A0CEB9B
:10501000020BCBF3092BDFF89CE01EF80BB084F8F1
:1050200000B0ACEB020BCBF3092B1EF80BB084F8ED
:1050300007B008EB060BCBF3092B1EF80BB084F876
:1050400001B0A8EB060BCBF3092B1EF80BB084F8CC
:1050500006B009EB030BCBF3092B1EF80BB084F859
:1050600002B0A9EB030BCBF3092B1EF80BB084F8AD
:1050700005B001EB050BCBF3092B1EF80BB084F840
:1050800003B0A1EB050BCBF3092B1EF80BB084F892
:1050900004B008342030DDF800B00BF1010BCDF87E
:1050A00000B0DDF800B0BBF1080FFFF457AF07B058
:1050B000BDE8F08FB2C4000870B504460D4600206C
:1050C0002071401EE0622946204602F0D3FC08B160
:1050D000032070BD94F82E1294F82F0241EA0020AC
:1050E0004AF65521884201D00220F2E794F869007F
:1050F000010694F8680041EA004194F8670041EA2B
:10510000002094F86610084320F07F400D49884243
:1051100001D10020DDE794F88500010694F88400B1
:1051200041EA004194F8830041EA002094F882109B
:10513000084320F07F400349884201D10020C8E79E
:105140000120C6E746415400024600E0521C107898
:1051500010B110788842F9D1107870470246891E44
:105160005069801E884201D8002070479378906A69
:1051700001FB0300F9E700002DE9F04780460C46EB
:10518000A17EE07E41EA002010B10020BDE8F0875A
:10519000207800F03F00401E00EB800101EBC006CC
:1051A0004FF00109002524E01A48405D205C1949B0
:1051B000495D2144497840EA0127B9F1000F11D037
:1051C000FF2E0BD2384601F0FBF882463146761CA2
:1051D00038F8110001F0F4F8824501D00020D5E73D
:1051E000B94605E04FF6FF70874201D00020CDE7B9
:1051F0006D1C0D2DD8D3207800F0400038B1B9F1E6
:10520000000F04D038F8160008B10020BEE70120D6
:10521000BCE7000000BB00082DE9F04704468946C2
:10522000B9F1000F06D1E76817B16069B84215D827
:10523000012713E04946204601F0F8FB0646022EFE
:1052400002D20120BDE8F087701C08B93046F9E7AA
:105250006069B04201D93046F4E74F463D4600BF91
:105260006D1C6069A84204D80225BD4201D9002006
:10527000E8E72946204601F0D9FB064606B909E0D1
:10528000701C08B1012E01D13046DBE7BD42E7D1E9
:105290000020D7E700BF6FF070422946204602F099
:1052A0004FFC8046B8F1000F08D1B9F1000F05D0CE
:1052B0002A464946204602F043FC8046B8F1000FDA
:1052C0000BD1E5602069401C78B12069401E206147
:1052D000607940F00100607107E0B8F1010F02D180
:1052E0004FF0FF3000E0012005462846AAE72DE9EF
:1052F000F74F86B00D4616468EE0112E03D20620DB
:1053000009B0BDE8F08F113E15F801AB4FEA2A193C
:105310000AF00F0003900AF0EE0008B10620EFE754
:1053200010210698FFF71CFD8046B8F1000F01D14F
:105330000320E5E706982430039900EBC10040F80C
:10534000298000200446074607E015F8010B049069
:1053500008F8040004980744641C102CF5D3790065
:105360000698FFF7FDFC8346BBF1000F01D1032037
:10537000C6E706983430039900EBC10040F829B025
:10538000002001900446059019E018F804000490EC
:1053900009E00598421C019905922BF8101001981C
:1053A000401C80B201900498411E04910028F0D165
:1053B0004FF6FF71019801EA40000190641C102C27
:1053C000E3D3BE4201D206209AE7F61B394606987F
:1053D000FFF7C6FC0290029808B9032090E70698F0
:1053E0004430DDE9021200EBC20040F8291000242D
:1053F00010E015F801ABB9F1000F04D1BAF10B0FB1
:1054000001DD06207CE7029880F800A00298401C8D
:105410000290641CBC42ECD3002E7FF46EAF0020DF
:105420006EE700002DE9F34F83B082460498D0F870
:1054300000B001E00BF1010B9BF800002F28F9D020
:105440009BF800005C28F5D0DAF81C9000252E4669
:1054500000BF3046761C1BF80040202C03DB2F2CAD
:1054600001D05C2C00D11CE0FF2D03D3062005B039
:10547000BDE8F08FE4B20121204600F07BFF044636
:105480000CB90620F3E7802C06DA21466BA0FFF763
:105490005BFE08B10620EAE728466D1C29F810409B
:1054A000D7E700BF0BEB060104980160202C01DA5E
:1054B000042000E00020074608E0681E39F810408C
:1054C000202C02D02E2C00D002E06D1E002DF4D135
:1054D00000BF0DB90620CAE7002029F815000B22ED
:1054E0002021DAF8180002F0BBFA002600E0761C52
:1054F00039F816002028FAD039F816002E28F6D0F0
:105500000EB147F0030700E06D1E25B1681E39F8A3
:1055100010002E28F8D14FF00008CDF808800820A0
:10552000019000BF3046761C39F8104004B955E0B0
:10553000202C03D02E2C04D1AE4202D047F003071A
:10554000F0E7DDE90110884201D2AE4216D10198A0
:105550000B2802D147F0030740E0AE4201D047F0EC
:105560000307AE4200D939E02E46082002900B20F6
:1055700001904FEA88604FEA1068D3E7802C0BDB7C
:105580000021204600F0F6FE04461CB1A4F1800084
:105590002D490C5C47F0020700BF24B121462BA027
:1055A000FFF7D2FD18B15F2447F003070FE0412C4D
:1055B00004DB5A2C02DC48F0020808E0612C06DB10
:1055C0007A2C04DC48F00108A4F1200084B2DAF857
:1055D00018300298411C02911C54A3E700BFDAF86E
:1055E00018000078E52803D10520DAF818100870B3
:1055F0000198082803D14FEA88604FEA106808F044
:105600000C000C2803D008F00300032801D147F058
:10561000020707F0020058B908F00300012801D181
:1056200047F0100708F00C00042801D147F00807E4
:10563000DAF81800C772002019E70000222A3A3C65
:105640003E3F7C7F0000000080BA00082B2C3B3DD1
:105650005B5D00002DE9F04782460C4616462BE0C4
:10566000412E02D20620BDE8F087413E14F8018B9E
:1056700008F0F00008B10620F5E708F003074FF442
:1056800080715046FFF76CFB05460DB90320EAE731
:105690000AF1540040F8275000270BE0084810F8A2
:1056A000079014F8010B074931F81910484345F8E1
:1056B00029007F1C402FF1D3002ED1D10020D2E74A
:1056C000F2C3000832C400082DE9F04104460E463A
:1056D0000021204600F0CDF90546EDB9002700BFB6
:1056E0002169206802F0C6F9054605B113E060693A
:1056F0000078E52802D06069007820B9781C074658
:10570000B04201D107E000270121204600F07FF8D8
:105710000546002DE4D000BF042D00D10725284602
:10572000BDE8F0812DE9F04704460021204600F055
:10573000A0F9074617B13846BDE8F0874FF0FF09DA
:10574000CA464FF6FF70208400BF2169206802F02E
:1057500091F9074607B157E065692E780EB904271D
:1057600052E0E87A00F03F08E52E05D008F0080086
:1057700040B1B8F10F0F05D04FF0FF094FF6FF70A1
:1057800020843AE0B8F10F0F1CD1E06978B306F03D
:10579000400030B195F80DA026F04006B146E088F3
:1057A00020844E450AD1687B504507D12946E069DF
:1057B000FFF7E2FC10B1A9F1010000E0FF2000F0CA
:1057C000FF091AE0B9F1000F05D1284602F0F2FAFC
:1057D000504500D118E0A069C07A00F0010038B946
:1057E0000B222846A16902F01BF908B90CE004E07D
:1057F0004FF0FF094FF6FF7020840021204600F093
:1058000006F80746002FA0D000BF384694E72DE9E0
:10581000F04104468846E088461CB0B208B12069D1
:1058200010B90420BDE8F08121684889C11700EB58
:10583000D1614911B6FBF1F201FB1261002971D16E
:105840002069401C2061E06828B920680089B042C6
:1058500068D80420E6E721684889C11700EBD161C8
:105860004911B6FBF1F122689278521E11400029CD
:1058700058D1E168206801F0D9F80546012D01D81A
:105880000220CFE7681C08B90120CBE720684069F7
:10589000A84241D8B8F1000F01D10420C2E7E16865
:1058A0002068FFF7B9FC05460DB90720BAE7012DBE
:1058B00001D10220B6E7681C08B90120B2E72068D0
:1058C00002F0ECFA08B10120ACE721684A8901F145
:1058D0003000002102F0C4F829462068FFF73EFCA2
:1058E0002168C86200270EE0012021680871206845
:1058F00002F0D4FA08B1012094E72068C06A401C85
:105900002168C8627F1C20688078B842ECD8206883
:10591000C06AC01B2168C862E56029462068FFF79D
:105920001DFC2061E68021684889C11700EBD16128
:105930004911B6FBF1F201FB12612268303202EB31
:105940004111616100206DE72DE9FE4F0446D4F856
:105950001880D4F81C900C224146684602F073F877
:1059600000BF9DF80B0000F0010020B3002088F874
:105970000B00E06101260CE033464A46694640468A
:1059800000F0FAFF2046FFF7CDFE054605B102E024
:10599000761C642EF0D300BF642E02D10720BDE830
:1059A000FE8F042D01D02846F9E79DF80B0088F8FA
:1059B0000B00C4F81C909DF80B0000F0020060B1D1
:1059C000002600E0761C39F816000028FAD106F10E
:1059D00019000D21B0FBF1F700E001273946204600
:1059E000FFF772FE054645BB781E071E25D0E088EE
:1059F000C11B204600F03DF80546F5B9A06902F04C
:105A0000D9F9824600BF2169206802F033F80546C3
:105A100005B111E0FAB253466169E06900F0EAFEAF
:105A200001202168087100212046FFF7F0FE05469D
:105A300015B9781E071EE6D100BFC5B921692068D7
:105A400002F018F8054695B920220021606902F09D
:105A500007F80B22D4E9050101F0F5FFA069C07A2F
:105A600000F0180061690873012021680871284658
:105A700095E72DE9F04104460E46E680A568012D24
:105A800003D020684069A84202D80220BDE8F08116
:105A90002DB920680078032801D12068456A45B9EE
:105AA00020680089B04201D80220EFE72068476AE9
:105AB00024E021684889C11700EBD16149112268AF
:105AC000927801FB02F812E02946206800F0AEFF50
:105AD0000546681C08B90120D8E7022D03D32068C9
