:020000040800F2
:10000000705100204501000885120008FF08000813
:100010008112000875020008352500080000000064
:100020000000000000000000000000005122000855
:10003000D504000800000000351300083D23000827
:100040005F0100085F0100085F0100085F01000810
:100050005F0100085F0100085F0100085F01000800
:100060005F0100085F0100085F0100085F010008F0
:100070005F0100085F0100085F0100085F010008E0
:100080005F0100085F0100085F0100085F010008D0
:100090005F0100085F0100085F0100085F010008C0
:1000A0005F0100085F0100085F0100085F010008B0
:1000B0005F0100085F0100085F0100085F010008A0
:1000C0005F0100085F0100085F0100085F01000890
:1000D0005F0100085F0100085F0100085F01000880
:1000E0005F0100085F0100085F0100085F01000870
:1000F0005F0100085F0100085F0100085F01000860
:100100005F010008391600085F0100085F01000860
:100110005F0100085F0100085F0100085F0100083F
:100120005F0100085F0100085F0100085F0100082F
:10013000DFF80CD000F08CF800480047814C000834
:10014000705100200648804706480047FEE7FEE75A
:10015000FEE7FEE7FEE7FEE7FEE7FEE7FEE7FEE777
:1001600041230008310100082DE9F05F0546002019
:1001700092469B4688460646814640241BE0284618
:1001800041464746224600F053F853465A46C01AA5
:10019000914110D311461846224600F03AF82D1A24
:1001A00067EB01084F4622460120002100F031F89C
:1001B00017EB00094E41201EA4F10104DFDC484684
:1001C00031462A464346BDE8F09F40EA01039B07BB
:1001D00003D009E008C9121F08C0042AFAD203E0BC
:1001E00011F8013B00F8013B521EF9D27047D2B220
:1001F00001E000F8012B491EFBD270470022F6E710
:1002000010B513460A4604461946FFF7F0FF20468C
:1002100010BD202A04DB203A00FA02F100207047CA
:100220009140C2F1200320FA03F319439040704734
:10023000202A04DB203A21FA02F00021704721FA3B
:1002400002F3D040C2F120029140084319467047A2
:10025000064C074D06E0E06840F0010394E8070013
:1002600098471034AC42F6D3FFF766FF28A2000887
:1002700048A2000800BFFEE770B500254FF48034A7
:1002800000E0641E24B1802001F0B6F90028F8D007
:1002900014B90325284670BD40F2FF5001F064F9FF
:1002A0002846F8E7014600BF0748406B00F04500CC
:1002B0000028F9D040F2FF50034A9063104640698D
:1002C00008221040C0B270470080014070B5002580
:1002D0001048446B01E00F48446B04F045000028CF
:1002E000F9D004F0040028B10325042001F03CF902
:1002F000284670BD04F0010028B10125012001F05D
:1003000033F92846F5E740F2FF5001F02DF9284671
:10031000EFE700000080014070B500250B48446BFA
:1003200001E00A48446B04F045000028F9D004F0CD
:10033000040028B10325042001F016F9284670BDF9
:1003400040F2FF5001F010F92846F8E70080014024
:100350002DE9F04106460F464FF000082248456B54
:1003600001E02148456B05F045000028F9D005F073
:10037000040038B14FF00308042001F0F5F84046BE
:10038000BDE8F08105F0010030B14FF00108012017
:1003900001F0EAF84046F3E701F028F9B04203D053
:1003A0004FF010084046EBE740F2FF5001F0DCF858
:1003B000002001F035F9044604F4604018B9200C1F
:1003C00038804046DCE704F4005008B11320D7E73A
:1003D00004F4804008B11020D2E704F4004008B1D2
:1003E0000F20CDE74046CBE70080014070B50026E6
:1003F0004FF480350F48446B02E06D1E0D48446B8E
:1004000004F0450008B9002DF7D115B104F004003F
:1004100028B10326042001F0A7F8304670BD04F08F
:10042000400028B10026402001F09EF83046F5E754
:100430003046F3E70080014000F0805111B10349DC
:10044000086001E00249486070470000040402406F
:100450000000024021B1026842F00102026004E0A3
:1004600002684FF6FE731A40026070470146002092
:10047000002201F0805313B1054B1A6801E0054BCF
:100480001A6802EA01030BB1012000E00020704766
:10049000000402400000024010B50022026847F646
:1004A000F0739A430C6A8B6823430C6923434C69AD
:1004B00023438C692343CC6923434C6A23438C6ACE
:1004C00023431A430260CB6843600B6883604B6828
:1004D000C36010BD7047000051B18200A2F1C0425C
:1004E000126842F001038200A2F1C042136009E0E9
:1004F0008200A2F1C0421268034B1A408300A3F1AC
:10050000C0431A6070470000FEFF0F00D0E90112DF
:100510001143C26811430269114342691143826960
:100520001143C2691143026A1143426A1143826A4C
:100530001143C26A1143026B114302689200A2F197
:10054000C0421160816808290BD101688900A1F1BE
:10055000C041096841F0400201688900A1F1C04131
:100560000A60416B0968426B526841EA0211426BB2
:10057000926841EA0221426B928941EA0241426B50
:10058000128A41EA0251426B127D41EA0261426BDA
:10059000926911430268521C9200A2F1C04211609C
:1005A000C16AB1F5804F1BD1816B0968826B5268BB
:1005B00041EA0211826B926841EA0221826B128A3F
:1005C00041EA0251826B127D41EA0261826B9269BB
:1005D000114302689200A2F1C042C2F8041107E080
:1005E0006FF0704201688900A1F1C041C1F8042197
:1005F000704700002DE9FC4107460D460026002407
:1006000000200090019008205D490860102048609B
:10061000402088600020C8604FF480600861084670
:1006200001F03CF81020FFF73DFE044614B12046CF
:10063000BDE8FC8153480088000451490860372018
:100640004860402088600020C8604FF480600861E6
:10065000084601F023F83720FFF724FE04460CB1CA
:100660002046E5E74FF0FF30474908600820486022
:10067000302088600220C8600020086101204861A5
:10068000084600F089FF00203D490860332048609B
:10069000402088600020C8604FF4806008610846F0
:1006A00000F0FCFF3320FFF7FDFD04460CB12046AF
:1006B000BEE70CE04FF4001000F09EFF38B100F0F0
:1006C000E7FF4DF82600761C012E00D906E02F48E2
:1006D000406B40F22A6108400028EBD000BF0820A0
:1006E00000F08AFF28B1082000F03EFF04242046D5
:1006F0009EE7022000F080FF28B1022000F034FFC6
:100700000224204694E7202000F076FF28B1202024
:1007100000F02AFF062420468AE74FF4007000F01C
:100720006BFF30B14FF4007000F01EFF072420462D
:100730007EE740F2FF5000F017FF00980006009996
:1007400001F47F4140EA0120009901F47F0140EA71
:100750001120009940EA1160686001980006019933
:1007600001F47F4140EA0120019901F47F0140EA50
:100770001120019940EA11602860204658E70000E6
:10078000401100204400002054110020008001404E
:1007900008B50121302000F0DFFD4FF4F850ADF82E
:1007A000000003208DF8020018208DF80300694630
:1007B000094800F015F80420ADF800006946074824
:1007C00000F00EF80121880200F0B6FD01210220A0
:1007D00000F0B2FD08BD000000100140001401400F
:1007E0002DE9F041024600250026002000230024C8
:1007F000002791F803C00CF00F0591F803C00CF02E
:10080000100CBCF1000F03D091F802C04CEA0505B2
:1008100091F800C0BCF1000F31D0146800202BE02B
:100820004FF0010C0CFA00F3B1F800C00CEA03061B
:100830009E4220D183004FF00F0C0CFA03F7BC430B
:1008400005FA03FC4CEA040491F803C0BCF1280F3C
:1008500006D14FF0010C0CFA00FCC2F814C00AE0FB
:1008600091F803C0BCF1480F05D14FF0010C0CFA10
:1008700000FCC2F810C0401C0828D1D31460B1F8A5
:1008800000C0BCF1FF0F34DD546800202EE000F101
:10089000080C4FF0010808FA0CF3B1F800C00CEA9C
:1008A00003069E4221D183004FF00F0C0CFA03F790
:1008B000BC4305FA03FC4CEA040491F803C0BCF104
:1008C000280F05D100F1080C08FA0CF8C2F81480C2
:1008D00091F803C0BCF1480F07D100F1080C4FF0AC
:1008E000010808FA0CF8C2F81080401C0828CED382
:1008F0005460BDE8F081416170470161704700BFFD
:10090000FEE7000010B5044624B140210448FFF77B
:10091000F2FF03E040210248FFF7EFFF10BD0000A7
:10092000002001402DE9F04106460F4614461D46C1
:100930002B4622463946304600F0AEF904FB05F05E
:100940000249098800F046F8BDE8F0812600002041
:1009500001B502E00098401E009000980028F9D1EF
:1009600008BD00B597B03C2108A8FFF747FC1C2143
:1009700001A8FFF743FC0121080200F0DDFC012083
:1009800001900420039080060790002002900490BC
:1009900005900690062008900020099008200A90F3
:1009A00010200B9000200C900E900F9010904FF4A0
:1009B00080501190002012901390149001A815906F
:1009C000169008A8FFF7A2FD01210620FFF784FD7D
:1009D00017B000BD70B504460D4600262C2000F06F
:1009E00007FC00BF03E0284600F006FC761CA64288
:1009F000F9D370BD08B501214FF4B07000F0ACFC24
:100A000003208DF8020018208DF803004FF4804079
:100A1000ADF8000069465B48FFF7E2FE4FF4004086
:100A2000ADF8000069465748FFF7DAFE0120ADF83F
:100A3000000069465348FFF7D3FE0220ADF80000DE
:100A400069465048FFF7CCFE8020ADF800006946AB
:100A50004D48FFF7C5FE4FF48070ADF800006946C1
:100A60004948FFF7BDFE4FF40070ADF8000069463D
:100A70004548FFF7B5FE4FF48060ADF800006946C9
:100A80004148FFF7ADFE4FF40060ADF80000694645
:100A90003D48FFF7A5FE4FF48050ADF800006946D1
:100AA0003948FFF79DFE4FF40050ADF8000069464D
:100AB0003548FFF795FE4FF48040ADF800006946D9
:100AC0003148FFF78DFE4FF40040ADF80000694655
:100AD0002D48FFF785FE4FF48070ADF800006946A1
:100AE0002848FFF77DFE4FF40070ADF8000069461E
:100AF0002448FFF775FE4FF48060ADF800006946AA
:100B00002048FFF76DFE03208DF8020018208DF8B5
:100B100003001020ADF8000069461A48FFF760FE98
:100B20002020ADF8000069461648FFF759FE4FF443
:100B30008050ADF8000069461448FFF751FE0420CC
:100B4000ADF8000069461048FFF74AFE10208DF806
:100B5000030003208DF802004FF40060ADF80000A0
:100B600069460A48FFF73CFE10208DF80300032079
:100B70008DF802004020ADF8000069460348FFF7F9
:100B80002FFE08BD00140140001801400020014064
:100B900010B50446072C00DD10BD31480470204616
:100BA00004EBD0714910A4EB410139B9F0202D4973
:100BB00008804FF4A0702C49088006E04FF4A07024
:100BC00028490880F02028490880362000F010FBD2
:100BD0002648008849F24131884205D1082141EA7E
:100BE000441000F009FB0AE02048008848F2525106
:100BF000884204D1002141EA441000F0FDFA2A2085
:100C000000F0F6FA002000F0F7FA002000F0F4FA05
:100C100014490988491EC1F3072000F0EDFA114973
:100C20000978491EC8B200F0E7FA2B2000F0E0FA7C
:100C3000002000F0E1FA002000F0DEFA0A490988FD
:100C4000491EC1F3072000F0D7FA07490978491E69
:100C5000C8B200F0D1FA2C2000F0CAFA00BF9BE71E
:100C60001C000020180000201A0000201E00002098
:100C700010B5FFF7BFFEFFF774FE0120FFF742FE3D
:100C800000F0A0FA00F038F802480078FFF780FF83
:100C900010BD00001C0000202DE9F04104460D4667
:100CA00016461F462A2000F0A3FA201200F0A4FAEC
:100CB000E0B200F0A1FAA119491EC1F30F2000F023
:100CC0009BFAA119491EC8B200F096FA2B2000F039
:100CD0008FFA281200F090FAE8B200F08DFAE919C4
:100CE000491EC1F30F2000F087FAE919491EC8B266
:100CF00000F082FABDE8F08110B500F025FAFE4957
:100D000008800846008849F2413188427ED1CF20D0
:100D100000F06EFA002000F06FFA812000F06CFA0B
:100D2000302000F069FAED2000F062FA642000F053
:100D300063FA032000F060FA122000F05DFA8120CF
:100D400000F05AFAE82000F053FA852000F054FA37
:100D5000102000F051FA782000F04EFACB2000F07D
:100D600047FA392000F048FA2C2000F045FA00201C
:100D700000F042FA342000F03FFA062000F03CFA7E
:100D8000F72000F035FA202000F036FAEA2000F0D3
:100D90002FFA002000F030FA002000F02DFAB120E8
:100DA00000F026FA002000F027FA1B2000F024FAB9
:100DB000B62000F01DFA0A2000F01EFAA22000F072
:100DC0001BFAC02000F014FA352000F015FAC120FB
:100DD00000F00EFA112000F00FFAC52000F008FA1A
:100DE000452000F009FA452000F006FAC72000F07F
:100DF000FFF9A22000F000FAF22000F0F9F900203B
:100E000000F0FAF9262000F0F3F900E096E0012066
:100E100000F0F2F9E02000F0EBF90F2000F0ECF91F
:100E2000262000F0E9F9242000F0E6F90B2000F07C
:100E3000E3F90E2000F0E0F9092000F0DDF954207C
:100E400000F0DAF9A82000F0D7F9462000F0D4F934
:100E50000C2000F0D1F9172000F0CEF9092000F0A5
:100E6000CBF90F2000F0C8F9072000F0C5F90020E9
:100E700000F0C2F9E12000F0BBF9002000F0BCF95D
:100E8000192000F0B9F91B2000F0B6F9042000F099
:100E9000B3F9102000F0B0F9072000F0ADF92A20D6
:100EA00000F0AAF9472000F0A7F9392000F0A4F9D2
:100EB000032000F0A1F9062000F09EF9062000F0C2
:100EC0009BF9302000F098F9382000F095F90F20B8
:100ED00000F092F9362000F08BF9C82000F08CF970
:100EE0002A2000F085F9002000F086F9002000F0AB
:100EF00083F9002000F080F9EF2000F07DF92B202D
:100F000000F076F9002000F077F9002000F074F985
:100F1000012000F071F93F2000F06EF93A2000F056
:100F200067F9552000F068F9112000F061F9734865
:100F3000FFF70EFD292000F05BF901E16E48008803
:100F400048F252518842F8D1CF2000F051F90020E8
:100F500000F052F9C12000F04FF9302000F04CF9B8
:100F6000ED2000F045F9642000F046F9032000F080
:100F700043F9122000F040F9812000F03DF9E8200B
:100F800000F036F9852000F037F9102000F034F930
:100F9000782000F031F9CB2000F02AF9392000F058
:100FA0002BF92C2000F028F9002000F025F934203E
:100FB00000F022F9022000F01FF9F72000F018F9E4
:100FC000202000F019F9EA2000F012F9002000F0CA
:100FD00013F9002000F010F9C02000F009F92120D9
:100FE00000F00AF9C12000F003F9112000F004F923
:100FF000C52000F0FDF82D2000F0FEF8332000F0B1
:10100000FBF8362000F0F4F8002000F0F5F83A2064
:1010100000F0EEF8552000F0EFF8B12000F0E8F80D
:10102000002000F0E9F8172000F0E6F8B62000F004
:10103000DFF80A2000F0E0F8A22000F0DDF8F6204A
:1010400000F0D6F8012000F0D7F8302000F0D4F8F6
:10105000F22000F0CDF8002000F0CEF8262000F0BD
:10106000C7F8012000F0C8F8E02000F0C1F8D02057
:1010700000F0C2F8002000F0BFF8022000F0BCF839
:10108000072000F0B9F80B2000F0B6F81A2000F0A5
:10109000B3F8312000F0B0F8542000F0ADF8402053
:1010A00000F0AAF8292000F0A7F8122000F0A4F818
:1010B000122000F0A1F8122000F09EF8172000F096
:1010C0009BF8E12000F094F8D02000F095F8002083
:1010D00000F092F8022000F08FF8072000F08CF862
:1010E000052000F089F8252000F086F82D2000F07A
:1010F00083F8442004E000001E000020FCBF020032
:1011000000F07AF8452000F077F81C2000F074F821
:10111000182000F071F8162000F06EF81C2000F086
:101120006BF81D2000F068F8112000F061F8054808
:10113000FFF70EFC292000F05BF82C2000F058F897
:1011400010BD0000FCBF020010B50024042000F018
:101150004FF800BF4FF0DA40008800BF4FF0DA4090
:10116000008800F02BF804464FF6FF7000EA0424D4
:1011700000F024F8044348F25250844201D1204642
:1011800010BDD32000F034F800BF4FF0DA400088E3
:1011900000BF4FF0DA40008800F010F804464FF628
:1011A000FF7000EA042400F009F8044349F24130DA
:1011B000844201D12046E3E70020E1E74FF0DA4026
:1011C0000088704710B54FF400610848FFF793FBA3
:1011D00040F6FF20FFF7BCFB4FF400610348FFF728
:1011E0008CFB40F6FF20FFF7B3FB10BD0020014051
:1011F0004FF0D841088070474FF0DA4108807047BF
:10120000024A1080024A118070470000240000202A
:1012100026000020014908607047000020000020DF
:1012200008B50121082000F097F82020ADF8000053
:1012300010208DF8030003208DF8020069460F4846
:10124000FFF7CEFA0120ADF8000069460B48FFF722
:10125000C7FA0220ADF8000069460848FFF7C0FA57
:1012600020210648FFF749FB01210448FFF745FB11
:1012700002210248FFF741FB08BD0000000C0140BD
:1012800000BFFEE7704708B54FF4C06000F048F8B3
:1012900031208DF8000000208DF801008DF802004B
:1012A00001208DF80300684600F002F808BD000038
:1012B00070B5002100230F22C47804B3154C2468B4
:1012C00004F4E064C4F5E064210AC1F10403CA40F7
:1012D000447804FA03F184781440214309010E4C48
:1012E0000678A155047804F01F050124AC40057868
:1012F0006D11AD0005F1E025C5F8004109E0047865
:1013000004F01F050124AC40044D0678761145F821
:10131000264070BD0CED00E000E400E080E100E05C
:1013200002490143024A1160704700000000FA05BB
:101330000CED00E07047000029B1064A52690243F3
:10134000044B5A6104E0034A52698243014B5A61DB
:10135000704700000010024029B1064A926902431A
:10136000044B9A6104E0034A92698243014B9A61FB
:10137000704700000010024030B500210022002418
:1013800000232D4D6D6805F00C0121B1042905D015
:10139000082923D105E0294D056022E0274D05608D
:1013A0001FE0254D6D6805F47012234D6D6805F43E
:1013B0008034022505EB92421CB9214D554305604E
:1013C0000BE01D4D6D6805F400351DB11C4D5543F6
:1013D000056002E0194D5543056002E0174D0560B8
:1013E00000BF00BF144D6D6805F0F0010909154DEF
:1013F0006B5C0568DD4045600F4D6D6805F4E0618C
:10140000090A104D6B5C4568DD4085600A4D6D68CA
:1014100005F46051C90A0B4D6B5C4568DD40C56041
:10142000054D6D6805F44041890B074D6B5CC5683F
:10143000B5FBF3F5056130BD0010024000127A00E3
:1014400000093D0000000020100000207CB505468A
:10145000002400200090019000F0E2F800F00070FD
:1014600010B10E2420467CBD3D49098888B26946EA
:10147000FFF7C0F804460CB12046F4E7012D36D141
:10148000019800F4802000282ED035480088000400
:101490003449086037204860402088600020C860D8
:1014A000A8020861084600F0F9F83720FEF7FAFEB6
:1014B00004460CB12046D6E702202A4908600620DF
:1014C0004860402088600020C8604FF48060086158
:1014D000084600F0E3F80620FEF7E4FE04460CB1EF
:1014E0002046C0E72046BEE725242046BBE70198FA
:1014F00000F4803078B31A48008800041949086065
:1015000037204860402088600020C8604FF4806029
:101510000861084600F0C2F83720FEF7C3FE044613
:101520000CB120469FE700200E4908600620486065
:10153000402088600020C8604FF480600861084641
:1015400000F0ACF80620FEF7ADFE04460CB12046D4
:1015500089E7204687E7FFE72524204683E7000048
:1015600044000020401100200149886370470000BA
:1015700000800140014988637047000000800140FD
:101580000149086070470000A0003042014908602E
:10159000704700008C05304200210A4B02685A62F5
:1015A00042689A621A46D16A21F0F701D0E9022313
:1015B0001A4303691A4343691A431143014AD1622A
:1015C0007047000000800140002006490860486024
:1015D0008860C86048628862C862034888630020E7
:1015E000C863704700800140FF07C00001480069E0
:1015F000C0B270470080014001460020034A526B90
:101600000A400AB1012000E000207047008001403C
:101610000248006800F003007047000000800140AD
:1016200008B5014600200090024808440090009848
:10163000006808BD1480014010B500F047FC10BDE3
:1016400029B1064AD26B0243044BDA6304E0034A31
:10165000D26B8243014BDA63704700000080014087
:1016600000210A4A516847F6FF629143027D836870
:101670001A4343681A43C3681A4303681A43036949
:101680001A431143014A5160704700000080014035
:101690000148006870470000808001400021094B2C
:1016A00002689A601A46D1686FF30A01D0E90123F3
:1016B0001A43C3681A4303691A431143014AD160AC
:1016C00070470000008001400549096821F00301CE
:1016D000034A116011460968014311607047000018
:1016E0000080014010B50248FEF7C0FE10BD0000AA
:1016F0000020001030B58BB005460C461348FEF7AD
:101700009BFE00211248FEF7A5FE124800900195AD
:1017100000200290A00803900020049080200590F3
:101720008000069080000790002008904FF4005041
:10173000099000200A9069460548FEF7ADFE012198
:101740000348FEF787FE0BB030BD000000F000102C
:10175000440402408080014030B58BB005460C4601
:101760001348FEF769FE00211248FEF773FE124887
:101770000090019510200290A00803900020049092
:10178000802005908000069080000790002008903F
:101790004FF40050099000200A9069460548FEF772
:1017A0007BFE01210348FEF755FE0BB030BD000063
:1017B00000F00010440402408080014070B50446EF
:1017C000002521480068032802D12725284670BD3E
:1017D0001D48006838B11C480068012803D01A4829
:1017E000006802282ED1B4F5805F02D12725284653
:1017F000EDE7B4F5006F14D10120FFF727FE054691
:1018000005BB012011490875002008604860886008
:101810004FF40060C860002008610846FFF720FF11
:1018200010E00020FFF712FE05465DB901200749D0
:1018300008750020086048608860C8600861084634
:10184000FFF70EFF2846C2E74000002028110020C5
:10185000F0B5014600200022BC4B1B7881F85630C1
:10186000BB4B1B88A1F85430BA4B1B681A0E930966
:101870000B70C2F383034B7002F003038B70B54B04
:101880001B68C3F30742CA70B24B1B88C3F307221D
:101890000A71B04B1A784A715B681A0E1301CB803B
:1018A000AC4B5B68C3F30742CB8843EA1213CB808F
:1018B00002F00F030B72A74B9B88C3F30722D309D7
:1018C0004B72C2F380138B72C2F34013CB72C2F31C
:1018D00000130B7300234B739C4B1B681BB19B4B7A
:1018E0001B68012B4FD193071B0D0B61994B1A7984
:1018F0000B6943EA82030B61964B9B681A0E0B69D6
:1019000043EA92130B61C2F3C2030B7502F00703A3
:101910004B75904B9B68C3F3074253098B75C2F319
:101920008203CB7593075B0F0B768A4B1B89C3F33E
:1019300007220B7E43EAD2130B760B695B1C002453
:10194000C1E912340B7ED1E912649B1C012505FA12
:1019500003F3DF17A6FB035C04FB03C306FB07339B
:10196000C1E912530C7A0123A3400B650027D1E98A
:1019700012560B6DA5FB034C06FB03C305FB073397
:10198000C1E912432DE0714B1B68022B29D1714B29
:101990001A7993069B0A0B616E4B9B681A0E0B69B2
:1019A00043EA02230B616B4B9B68C3F307420B694D
:1019B00013430B61674B1B89C3F307220B695B1C45
:1019C0004FF40074A3FB04344FF480660025A3FB9E
:1019D000067C04FB06C403FB0543C1E912737310C4
:1019E0000B65C2F3801301F8193F93065B0E4B7031
:1019F000584B1A7A4B7843EAD2134B7002F07F03AC
:101A00008B70544BDB681A0ED309CB70C2F34113B1
:101A10000B71C2F382034B7193071B0F8B714D4BFC
:101A2000DB68C3F307428B7943EA92138B71C2F3ED
:101A30004013CB7100230B7202F001034B72454B34
:101A40009B89C3F30722D3098B72C2F38013CB7235
:101A5000C2F340130B73C2F300134B73C2F3810341
:101A60008B7302F00303CB733A4B1A7B53080B744E
:101A700001234B74384B1B681A0ECA741939364B44
:101A80001B68C3F307421402CC85334B1B88C3F396
:101A90000722CB8D1343CB852F4B1A7814060C638A
:101AA0005B681A0E0B6B43EA02440C632A4B5B68BB
:101AB000C3F307420B6B43EA02240C63264B9B885B
:101AC000C3F307220B6B13430B63234B1A793423A5
:101AD0005A54214B9B681A0E35235A541E4B9B684F
:101AE000C3F3074214068C631B4B1B89C3F3072205
:101AF0008B6B43EA02448C63174B1A7A8B6B43EA75
:101B000002248C63144BDB681A0E8B6B13438B63BC
:101B1000114BDB68C3F307423C235B5C43EA1214BE
:101B20003C235C5413071C0DCC870B4B9B89C3F3E0
:101B30000722CB8F1343CB87074B1A7B54084023D4
:101B40005C54012441235C54F0BD0000400000209F
:101B500044000020A0100020B010002008B5002094
:101B60000090684600F074FA08B1FF2008BD0098A4
:101B7000C0F34320FAE710B50424FFF7EFFF044653
:101B8000042C01D1002010BDFF2C01D10220FAE766
:101B90000120F8E710B50024FFF775FBFEF7F8FD0C
:101BA000FFF712FD00F0CEF804460CB1204610BD40
:101BB00000F02AF804460CB12046F8E7012010494D
:101BC00008750020086048608860C86008610846A1
:101BD000FFF746FD1CB90B48FFF73AFE044634B93F
:101BE0000849B1F85410080400F018FA044624B962
:101BF0004FF40060FFF7E2FD04462046D7E70000FF
:101C000028110020D010002038B5002401200090B9
:101C1000FFF7FEFC10B92524204638BD4448006873
:101C2000042828D000204349086002204860C020D2
:101C300088600020C8604FF4806008610846FFF7A4
:101C40002DFDFEF743FB04460CB12046E5E70020DE
:101C5000FFF7E6FC384908600420FFF7E1FC36494D
:101C600048600820FFF7DCFC334988600C20FFF750
:101C7000D7FC3149C8602E48006858B12C4800682C
:101C8000012807D02A480068062803D028480068A1
:101C9000022816D100202749086003204860402010
:101CA00088600020C8604FF4806008610846FFF734
:101CB000F5FC69460320FEF74BFB04460CB12046B9
:101CC000ABE71B48006804282ED0BDF800001B4974
:101CD0000860BDF80000000416490860092048604B
:101CE000C02088600020C8604FF48060086108460A
:101CF000FFF7D4FCFEF7EAFA04460CB120468CE765
:101D00000020FFF78DFC0E4908600420FFF788FCD7
:101D10000B4948600820FFF783FC094988600C20C4
:101D2000FFF77EFC0649C8600024204675E70000E6
:101D30004000002040110020B0100020440000208E
:101D4000A01000202DE9F0410024002600250027E6
:101D5000A046B22059490875002008604860886094
:101D6000C86008610846FFF77BFC0320FFF7ACFC66
:101D70000120FFF705FC0020514908604860886099
:101D8000C8604FF4806008610846FFF787FCFEF7E3
:101D900073FA044614B12046BDE8F0814FF4D570C3
:101DA0004749086008204860402088600020C860DB
:101DB0004FF4806008610846FFF770FCFEF716FBE1
:101DC00004462CB901203F4908604FF0804812E0DA
:101DD00000203B4908603720486040208860002090
:101DE000C8604FF4806008610846FFF757FC372051
:101DF000FEF758FA04460020314908603720486051
:101E0000402088600020C8604FF480600861084668
:101E1000FFF744FC3720FEF745FA0446002C4AD170
:101E200036E000202649086037204860402088605E
:101E30000020C8604FF4806008610846FFF72EFC60
:101E40003720FEF72FFA04460CB12046A4E71E48BF
:101E500048EA00001A49086029204860402088604C
:101E60000020C8604FF4806008610846FFF716FC48
:101E7000FEF752FA04460CB120468DE70020FFF72A
:101E8000CFFB0646012080EAD67080F001076D1C6A
:101E90001FB94FF6FF708542C3D34FF6FF708542DE
:101EA00002D31B24204677E706F08040061E02D0AE
:101EB00002200449086020466EE700002811002037
:101EC00040110020400000200000108010B5114893
:101ED000006801280BD100200F49886040F24C4077
:101EE000C8600C20FEF7DEF90C49087002E0002003
:101EF0000A4908704FF48070FFF73CFB00214FF453
:101F00008070FFF79DFB01200549086003480078B9
:101F100010BD000048000020008001404C0000205F
:101F2000500000202DE9F047814614461D46DDE9AA
:101F300008680027002032490870324908600120F3
:101F40003149086000203149C862314800680228E0
:101F500008D106020202002320462946FEF704F9B2
:101F600004460D462B48066010202A494860402050
:101F700088600020C8604FF4806008610846FFF761
:101F80008DFB1020FEF78EF9074617B13846BDE8E5
:101F9000F0874FF0FF302049086008FB06F04860EA
:101FA000902088600220C8600020086101204861FC
:101FB0000846FFF7F1FA17480460122015494860F7
:101FC000402088600020C8604FF4806008610846A7
:101FD000FFF764FB1220FEF765F907460FB138469C
:101FE000D5E701210802FFF72BFB0120FFF7CEFA0E
:101FF00008FB06F14846FFF77DFB3846C7E70000BF
:102000004C000020500000204800002000800140CB
:1020100040000020401100205411002070B50446FB
:1020200000250A480460072008494860402088606D
:102030000020C8604FF4806008610846FFF72EFB5F
:102040000720FEF72FF90546284670BD40110020F5
:1020500070B5044600250A480088000409498860D4
:1020600040F24D40C8600D20FEF71CF905460DB149
:10207000284670BD0348406920602846F9E7000003
:10208000440000200080014010B5002400BFFFF78D
:1020900029FB30B90748006818B9074800780028BC
:1020A000F5D00548007810B10348007810BD2046EF
:1020B000FCE70000500000204C00002010B5002478
:1020C00000BFFFF70FFB30B90948006818B909488D
:1020D00000780028F5D00748007810B1054800784E
:1020E00010BD40F2FF50FFF73FFA2046F8E700002E
:1020F000500000204C0000202DE9F8438146154691
:102100001E46DDE908780024002000904849087048
:102110004849086001204849086000204749C862D2
:1021200047480068022808D1070202020023284617
:102130003146FEF719F805460E4642480760102062
:1021400040494860402088600020C8604FF48060AB
:1021500008610846FFF7A2FA1020FEF7A3F804462C
:1021600014B12046BDE8F88337480088000435499B
:10217000086037204860402088600020C8604FF425
:10218000806008610846FFF789FA3720FEF78AF871
:1021900004460CB12046E5E72A48C0F80080172025
:1021A00028494860402088600020C8604FF4806063
:1021B00008610846FFF772FA1720FEF773F8044625
:1021C0000CB12046CEE71F48056019201D49486024
:1021D000402088600020C8604FF480600861084695
:1021E000FFF75CFA1920FEF75DF804460CB12046B3
:1021F000B8E74FF0FF301549086008FB07F048606A
:10220000902088600020C86008610120486108466D
:10221000FFF7C2F901210802FFF712FA0120FFF7C8
:10222000B5F908FB07F14846FFF796FA204699E70B
:102230004C00002050000020480000200080014099
:1022400040000020401100204400002054110020D4
:10225000704710B500F002F810BD00000CB500206A
:10226000019000903348006840F4803031490860A4
:1022700000BF3048006800F4003000900198401C16
:102280000190009818B90198B0F5A06FF1D12948D4
:10229000006800F4003010B10120009001E000203F
:1022A00000900098012843D12348006840F01000B6
:1022B000214908600846006820F0030008600846CD
:1022C000006840F0020008601A48406819494860F8
:1022D0000846406848600846406840F480604860AE
:1022E0000846406820F47C1048600846406840F486
:1022F000E81048600846006840F08070086000BF41
:102300000C48006800F000700028F9D009484068C7
:1023100020F00300074948600846406840F002008A
:10232000486000BF0348406800F00C000828F9D15D
:102330000CBD000000100240002002407047000069
:1023400010B51348006840F00100114908600846C4
:102350004068104908400E494860084600680E4928
:1023600008400B4908600846006820F48020086097
:102370000846406820F4FE0048604FF41F00886063
:10238000FFF767FF4FF000600449086010BD0000D0
:10239000001002400000FFF8FFFFF6FE08ED00E02D
:1023A00021B1828942F40052828104E082894DF693
:1023B000FF731A408281704700B585B00121042067
:1023C000FEF7CAFF01218803FEF7C6FF4FF4007035
:1023D000ADF8100018208DF8130003208DF81200BE
:1023E00004A91348FEF7FCF94FF48060ADF8100023
:1023F00004208DF8130004A90D48FEF7F1F94FF4FD
:10240000E13000900020ADF80400ADF80600ADF812
:102410000800ADF80C000C20ADF80A00694605482C
:1024200000F018F801210348FFF7BAFF05B000BD1E
:10243000000801400038014002460020B1F5007F4D
:1024400000D100BF13880B400BB1012000E0002039
:10245000704700002DE9F04786B005460E4600247F
:10246000A24600BFA1460027B08900B100BF2F4699
:102470002C8A4CF6FF700440F08804432C82AC890F
:102480004EF6F3100440B08831890843718908433F
:102490000443AC81AC8A4FF6FF400440B08904434A
:1024A000AC8201A8FEF768FF1F48874202D1DDF821
:1024B00010A001E0DDF80CA0A88900F4004040B1B4
:1024C0000AEBCA0000EB0A1031684900B0FBF1F8D2
:1024D00007E00AEBCA0000EB0A1031688900B0FB84
:1024E000F1F86420B8FBF0F004012009642101FB3D
:1024F0001089A88900F4004040B1322000EBC900E7
:10250000B0FBF1F000F00700044308E0322000EBDC
:1025100009106421B0FBF1F000F00F0004432C819E
:1025200006B0BDE8F087000000380140C1F30802A2
:102530008280704700BFFEE70FB4054B10B503A9BA
:10254000044A029800F018F810BC5DF814FB000073
:10255000494300086000002002E008C8121F08C1BB
:10256000002AFAD170477047002001E001C1121F14
:10257000002AFBD1704700002DE9FF4F8BB09A462F
:102580000F460446002606E025280BD052460D993A
:102590009047641C761C20780028F5D10FB0304697
:1025A000BDE8F08F0025A94601227D4900E00543E2
:1025B00014F8013F203B02FA03F00842F7D12078DB
:1025C0002E2817D114F8010F45F004052A280ED043
:1025D0006FF02F022078A0F1300109290AD809EB09
:1025E000890102EB410100EB0109641CF2E757F895
:1025F000049B641C20786C280DD004DC4C2812D07D
:102600006A2811D104E074280DD07A280CD10AE090
:1026100045F4001507E0617845F48015814202D148
:10262000641C05F58015641C207869283ED006DC02
:102630000028B3D063280BD0642804D136E0732877
:1026400010D075285CD052460D999047761CA5E0B5
:1026500017F8040B8DF8000000208DF80100E84603
:10266000012003E057F8048B4FF0FF3069074FF06B
:10267000000501D40AE06D1C4D450DDA8542FADBF8
:1026800018F805100029F6D106E06D1C8542FCDB28
:1026900018F805100029F8D12E4404E018F8010BB1
:1026A00052460D9990476D1EF8D277E000200A90AF
:1026B000C5F302504FF00A0B02280CD001CFC1170E
:1026C000021E71F100020CDA0023D0EB030063EB71
:1026D00001012D2208E0FF1D27F00707F7E802019E
:1026E000EEE72A0504D52B228DF82420012203E0F1
:1026F000EA070FD02022F7E70DF12008089218E032
:1027000000200A90C5F302504FF00A0B022803D0B4
:1027100001CF00210022EFE7FF1D27F00707F7E8B0
:102720000201F7E75A460A9BFDF71EFD303208F812
:10273000012D50EA0102F5D1ADEB080000F1200BAC
:10274000680701D44FF00109D94502DDA9EB0B0060
:1027500000E000208146002506E009A85246405DC1
:102760000D9990476D1C761C08988542F5DB04E0B6
:10277000302052460D999047761CB9F10001A9F11D
:102780000109F5DC05E018F8010B52460D99904758
:10279000761CBBF10001ABF1010BF4DC641CFAE622
:1027A0000928010002460020CB1C23F00301136F0F
:1027B0008B4205D3136F5B1A1367D06E4318D36631
:1027C00070472DE9F05F04468846267B27686568D8
:1027D00095F800A000208346814600BF36BB67B94C
:1027E000A5684FF4007229462046636F9847074654
:1027F00027B96FF00100BDE8F09F6D1C7F1EBBF193
:10280000000F0AD04FF0000B287810B16FF00500D0
:10281000F1E7FF208246287007E095F800A0BAF1A2
:10282000FF0F02D14FF0010B0BE080264FEA490960
:102830000AEA060008B109F101097610A8F10108B9
:1028400000BFB8F1000FC9D1267327606560484604
:10285000D1E700002DE9F04F87B00C464FF4B55B8F
:10286000CDF818B041F2511BCDF814B042F6CF1B91
:10287000CDF810B041F6905BCDF80CB04FF0000BE6
:10288000CDF800B080E0D0F800C0D0F84080D0F89B
:102890008090D0F8C0100CEB090AACEB090BCDF816
:1028A00008B0A8EB010B4FF4B55E0BFB0EFB4FEA33
:1028B0002B3741447F1A0AEB010CAAEB0101DDF82A
:1028C00008B007EB0B08DDF808B0ABEB0709D0F850
:1028D000E050036AD0F8A060026EA3EB050A5F190E
:1028E000A6EB020BCDF808B03244A7EB020B0BFBB2
:1028F0000EFB4FEA2B333A44DDF808B0D34441F6DF
:10290000905E0BFB0EFB4FEA2B3BCDF804B041F27F
:10291000511B0AFB0BFEDDF804B0ABEB2E3542F683
:10292000CF1EDDF808B00BFB0EFEDDF804B0ABEBFC
:102930002E3BABEB02069B1BED1A0CEB020BC0F817
:1029400000B0ACEB020BC0F8E0B008EB060BC0F82F
:1029500020B0A8EB060BC0F8C0B009EB030BC0F821
:1029600040B0A9EB030BC0F8A0B001EB050BC0F819
:1029700060B0A1EB050BC0F880B0001DDDF800B021
:102980000BF1010BCDF800B0DDF800B0BBF1080F82
:10299000FFF479AF20384FF0000BCDF800B0A2E083
:1029A000D0F800B00BF5004CD0F80880D0F81090AB
:1029B00081690CEB090AACEB090BCDF808B0A8EB68
:1029C000010B4FF4B55E0BFB0EFB4FEA2B37414476
:1029D0007F1A0AEB010CAAEB0101DDF808B007EB46
:1029E0000B08DDF808B0ABEB0709C5694368466919
:1029F000C268A3EB050A5F19A6EB020BCDF808B07D
:102A00003244A7EB020B0BFB0EFB4FEA2B333A448D
:102A1000DDF808B0D34441F6905E0BFB0EFB4FEAA5
:102A20002B3BCDF804B041F2511B0AFB0BFEDDF845
:102A300004B0ABEB2E3542F6CF1EDDF808B00BFB31
:102A40000EFEDDF804B0ABEB2E3BABEB02069B1B9E
:102A5000ED1A0CEB020BCBF3092BDFF89CE01EF810
:102A60000BB084F800B0ACEB020BCBF3092B1EF8D3
:102A70000BB084F807B008EB060BCBF3092B1EF85C
:102A80000BB084F801B0A8EB060BCBF3092B1EF8B2
:102A90000BB084F806B009EB030BCBF3092B1EF83F
:102AA0000BB084F802B0A9EB030BCBF3092B1EF893
:102AB0000BB084F805B001EB050BCBF3092B1EF826
:102AC0000BB084F803B0A1EB050BCBF3092B1EF878
:102AD0000BB084F804B008342030DDF800B00BF1FE
:102AE000010BCDF800B0DDF800B0BBF1080FFFF42A
:102AF00057AF07B0BDE8F08F269E000870B50446BA
:102B00000D4600202071401EE0622946204602F05A
:102B10006BFC08B1032070BD94F82E1294F82F02BC
:102B200041EA00204AF65521884201D00220F2E70E
:102B300094F86900010694F8680041EA004194F8AD
:102B4000670041EA002094F86610084320F07F40B7
:102B50000D49884201D10020DDE794F88500010687
:102B600094F8840041EA004194F8830041EA00208F
:102B700094F88210084320F07F400349884201D135
:102B80000020C8E70120C6E746415400024600E0A5
:102B9000521C107810B110788842F9D11078704723
:102BA0000246891E5069801E884201D80020704765
:102BB0009378906A01FB0300F9E700002DE9F047E4
:102BC00080460C46A17EE07E41EA002010B1002044
:102BD000BDE8F087207800F03F00401E00EB800148
:102BE00001EBC0064FF00109002524E01A48405DC2
:102BF000205C1949495D2144497840EA0127B9F12F
:102C0000000F11D0FF2E0BD2384601F0FBF88246A0
:102C10003146761C38F8110001F0F4F8824501D0F5
:102C20000020D5E7B94605E04FF6FF70874201D096
:102C30000020CDE76D1C0D2DD8D3207800F040008A
:102C400038B1B9F1000F04D038F8160008B10020EF
:102C5000BEE70120BCE70000749400082DE9F047AE
:102C600004468946B9F1000F06D1E76817B16069DB
:102C7000B84215D8012713E04946204601F0F8FB79
:102C80000646022E02D20120BDE8F087701C08B96A
:102C90003046F9E76069B04201D93046F4E74F4663
:102CA0003D4600BF6D1C6069A84204D80225BD42A4
:102CB00001D90020E8E72946204601F0D9FB064665
:102CC00006B909E0701C08B1012E01D13046DBE7DE
:102CD000BD42E7D10020D7E700BF6FF07042294620
:102CE000204602F0E7FB8046B8F1000F08D1B9F1A9
:102CF000000F05D02A464946204602F0DBFB8046FD
:102D0000B8F1000F0BD1E5602069401C78B1206953
:102D1000401E2061607940F00100607107E0B8F169
:102D2000010F02D14FF0FF3000E001200546284698
:102D3000AAE72DE9F74F86B00D4616468EE0112E14
:102D400003D2062009B0BDE8F08F113E15F801ABA3
:102D50004FEA2A190AF00F0003900AF0EE0008B1BA
:102D60000620EFE710210698FFF71CFD8046B8F11A
:102D7000000F01D10320E5E706982430039900EB0A
:102D8000C10040F8298000200446074607E015F8F6
:102D9000010B049008F8040004980744641C102CEC
:102DA000F5D379000698FFF7FDFC8346BBF1000FD1
:102DB00001D10320C6E706983430039900EBC10027
:102DC00040F829B0002001900446059019E018F859
:102DD0000400049009E00598421C019905922BF823
:102DE00010100198401C80B201900498411E04917B
:102DF0000028F0D14FF6FF71019801EA40000190E0
:102E0000641C102CE3D3BE4201D206209AE7F61BC5
:102E100039460698FFF7C6FC0290029808B90320CD
:102E200090E706984430DDE9021200EBC20040F85A
:102E30002910002410E015F801ABB9F1000F04D1FE
:102E4000BAF10B0F01DD06207CE7029880F800A0A4
:102E50000298401C0290641CBC42ECD3002E7FF40C
:102E60006EAF00206EE700002DE9F34F83B082467D
:102E70000498D0F800B001E00BF1010B9BF80000C2
:102E80002F28F9D09BF800005C28F5D0DAF81C90C8
:102E900000252E4600BF3046761C1BF80040202C33
:102EA00003DB2F2C01D05C2C00D11CE0FF2D03D3C1
:102EB000062005B0BDE8F08FE4B20121204600F005
:102EC0007BFF04460CB90620F3E7802C06DA214686
:102ED0006BA0FFF75BFE08B10620EAE728466D1CF1
:102EE00029F81040D7E700BF0BEB060104980160FA
:102EF000202C01DA042000E00020074608E0681ECC
:102F000039F81040202C02D02E2C00D002E06D1E8B
:102F1000002DF4D100BF0DB90620CAE7002029F822
:102F200015000B222021DAF8180002F053FA0026CF
:102F300000E0761C39F816002028FAD039F816007F
:102F40002E28F6D00EB147F0030700E06D1E25B124
:102F5000681E39F810002E28F8D14FF00008CDF87F
:102F600008800820019000BF3046761C39F81040D8
:102F700004B955E0202C03D02E2C04D1AE4202D04F
:102F800047F00307F0E7DDE90110884201D2AE42C5
:102F900016D101980B2802D147F0030740E0AE425A
:102FA00001D047F00307AE4200D939E02E46082091
:102FB00002900B2001904FEA88604FEA1068D3E737
:102FC000802C0BDB0021204600F0F6FE04461CB1ED
:102FD000A4F180002D490C5C47F0020700BF24B12A
:102FE00021462BA0FFF7D2FD18B15F2447F003075D
:102FF0000FE0412C04DB5A2C02DC48F0020808E008
:10300000612C06DB7A2C04DC48F00108A4F12000D6
:1030100084B2DAF818300298411C02911C54A3E7DC
:1030200000BFDAF818000078E52803D10520DAF8A7
:10303000181008700198082803D14FEA88604FEAF9
:10304000106808F00C000C2803D008F003000328D7
:1030500001D147F0020707F0020058B908F0030059
:10306000012801D147F0100708F00C00042801D115
:1030700047F00807DAF81800C772002019E70000C7
:10308000222A3A3C3E3F7C7F00000000F493000877
:103090002B2C3B3D5B5D00002DE9F04782460C4642
:1030A00016462BE0412E02D20620BDE8F087413EB5
:1030B00014F8018B08F0F00008B10620F5E708F0DD
:1030C00003074FF480715046FFF76CFB05460DB9BE
:1030D0000320EAE70AF1540040F8275000270BE0EC
:1030E000084810F8079014F8010B074931F8191037
:1030F000484345F829007F1C402FF1D3002ED1D141
:103100000020D2E7669D0008A69D00082DE9F04149
:1031100004460E460021204600F0CDF90546EDB9E3
:10312000002700BF2169206802F05EF9054605B15D
:1031300013E060690078E52802D06069007820B962
:10314000781C0746B04201D107E000270121204644
:1031500000F07FF80546002DE4D000BF042D00D11B
:1031600007252846BDE8F0812DE9F04704460021F7
:10317000204600F0A0F9074617B13846BDE8F087B1
:103180004FF0FF09CA464FF6FF70208400BF216947
:10319000206802F029F9074607B157E065692E78E3
:1031A0000EB9042752E0E87A00F03F08E52E05D07A
:1031B00008F0080040B1B8F10F0F05D04FF0FF093B
:1031C0004FF6FF7020843AE0B8F10F0F1CD1E06990
:1031D00078B306F0400030B195F80DA026F0400617
:1031E000B146E08820844E450AD1687B504507D11E
:1031F0002946E069FFF7E2FC10B1A9F1010000E007
:10320000FF2000F0FF091AE0B9F1000F05D12846B0
:1032100002F08AFA504500D118E0A069C07A00F0A7
:10322000010038B90B222846A16902F0B3F808B9A9
:103230000CE004E04FF0FF094FF6FF7020840021FE
:10324000204600F006F80746002FA0D000BF384601
:1032500094E72DE9F04104468846E088461CB0B268
:1032600008B1206910B90420BDE8F08121684889BF
:10327000C11700EBD1614911B6FBF1F201FB1261FC
:10328000002971D12069401C2061E06828B92068BC
:103290000089B04268D80420E6E721684889C11750
:1032A00000EBD1614911B6FBF1F122689278521E10
:1032B0001140002958D1E168206801F0D9F805468D
:1032C000012D01D80220CFE7681C08B90120CBE707
:1032D00020684069A84241D8B8F1000F01D104200C
:1032E000C2E7E1682068FFF7B9FC05460DB9072081
:1032F000BAE7012D01D10220B6E7681C08B9012008
:10330000B2E7206802F084FA08B10120ACE7216836
:103310004A8901F13000002102F05CF8294620685A
:10332000FFF73EFC2168C86200270EE001202168FB
:103330000871206802F06CFA08B1012094E7206857
:10334000C06A401C2168C8627F1C20688078B8422F
:10335000ECD82068C06AC01B2168C862E5602946B5
:103360002068FFF71DFC2061E68021684889C117AD
:1033700000EBD1614911B6FBF1F201FB1261226849
:10338000303202EB4111616100206DE72DE9FE4F03
:103390000446D4F81880D4F81C900C2241466846A4
:1033A00002F00BF800BF9DF80B0000F0010020B305
:1033B000002088F80B00E06101260CE033464A4605
:1033C0006946404600F0FAFF2046FFF7CDFE05466D
:1033D00005B102E0761C642EF0D300BF642E02D14A
:1033E0000720BDE8FE8F042D01D02846F9E79DF89F
:1033F0000B0088F80B00C4F81C909DF80B0000F03F
:10340000020060B1002600E0761C39F816000028A2
:10341000FAD106F119000D21B0FBF1F700E0012708
:1034200039462046FFF772FE054645BB781E071E4B
:1034300025D0E088C11B204600F03DF80546F5B9CF
:10344000A06902F071F9824600BF2169206801F08D
:10345000CBFF054605B111E0FAB253466169E06958
:1034600000F0EAFE01202168087100212046FFF7E4
:10347000F0FE054615B9781E071EE6D100BFC5B996
:103480002169206801F0B0FF054695B9202200218E
:10349000606901F09FFF0B22D4E9050101F08DFF67
:1034A000A069C07A00F018006169087301202168E2
:1034B0000871284695E72DE9F04104460E46E6805E
:1034C000A568012D03D020684069A84202D80220D7
:1034D000BDE8F0812DB920680078032801D120686B
:1034E000456A45B920680089B04201D80220EFE75B
:1034F0002068476A24E021684889C11700EBD16140
:1035000049112268927801FB02F812E029462068EE
:1035100000F0AEFF0546681C08B90120D8E7022D6F
:1035200003D320684069A84201D80220D0E7A6EB67
:1035300008064645EAD229462068FFF731FB0746D0
:10354000E5600FB90220C3E721684889C11700EB85
:10355000D1614911B6FBF1F13944216121684889F3
:10356000C11700EBD1614911B6FBF1F201FB126109
:103570002268303202EB411161610020A8E770B58A
:103580000446012514B1012C09D107E0FEF702FB26
:1035900010B925F0010500E0012502E001E0012558
:1035A00000BF00BF284670BD2DE9F04705460E4616
:1035B00014464FF0040915B1012D21D11FE0CEB101
:1035C000012E0BD0022E02D0032E14D103E04FF4B3
:1035D000007020800FE0012020600CE00C48D0F843
:1035E00050C062460023D0E912713846FCF7BCFD9A
:1035F000206000E000BF00BF4FF0000903E002E0E0
:103600004FF0040900BF00BF4846BDE8F087000046
:10361000D01000202DE9F04FADF5017D81460C461C
:1036200015461E464FF0040B4FF0000AB9F1000F8B
:1036300003D0B9F1010F42D140E004F00300E8B13A
:10364000002711E02A466D1C012301A90020FFF785
:10365000E1FF074607B10BE04FF4007201A92046D5
:10366000FCF7B3FD04F50074301EA6F10106E9D1A4
:1036700000BF38460DF5017DBDE8F08F4FF40070B6
:10368000A5FB00713A460B46CDE900062046FEF741
:1036900049FC8246BAF1000F07D1FEF7F5FC8246DD
:1036A00000BFFEF768FA0028FBD1BAF1000F02D084
:1036B0004FF0040B01E04FF0000B03E002E04FF08D
:1036C000040B00BF00BF5846D4E70146012011B1EA
:1036D000012904D102E020F0010002E001E0012014
:1036E00000BF00BF70472DE9F04FADF5017D814669
:1036F0000C4616461D464FF0040B4FF0000A25B944
:1037000004200DF5017DBDE8F08FB9F1000F03D065
:10371000B9F1010F3FD13DE004F00300D0B1002723
:1037200011E04FF40072214601A8FCF74EFD32462D
:10373000761C012301A90020FFF7D5FF074607B13A
:1037400005E004F50074281EA5F10105E9D100BFCC
:103750003846D6E74FF40070A6FB00713A460B4698
:10376000CDE900052046FEF7C7FC8246BAF1000FFE
:1037700007D1FEF7A3FC824600BFFEF7FCF9002844
:10378000FBD1BAF1000F02D04FF0040B01E04FF073
:10379000000B03E002E04FF0040B00BF00BF5846EF
:1037A000AFE770B50546284600F0ADFA044634B9D7
:1037B000284602F056F804460CB90020286020463E
:1037C00070BD2DE9F04704460E46204602F049F848
:1037D0008246BAF1000F02D05046BDE8F087E0798A
:1037E00008B1E079F9E7E068B04204D2A07900F0CE
:1037F000020000B9E668D4F808904FF00008C4F859
:103800000880002E71D0206880782168498900FBEB
:1038100001F7B9F1000F11D0701EB0FBF7F1A9F15B
:103820000100B0FBF7F0814208D3A9F10100791E35
:103830008843A060A068361A656912E025697DB9E1
:1038400000212068FFF70AFA0546012D02D1022067
:10385000E071C2E7681C10B90120E071BDE7256185
:103860006561002D41D023E0A07900F0020038B15D
:1038700029462068FFF7F2F9054635B93E4619E0BA
:103880002946206800F0F4FD0546681C10B90120A7
:10389000E071A2E7012D03D920684069A84202D84F
:1038A0000220E07199E76561A0683844A060F61BCA
:1038B000BE42D9D800BFA0683044A06020684089CB
:1038C000B6FBF0F100FB116078B129462068FFF7E4
:1038D00067F98046B8F1000F02D10220E0717CE761
:1038E00020684089B6FBF0F0804421684989A068CF
:1038F000B0FBF1F201FB120020B3A069404521D0DA
:10390000A07900F0400078B121684878012304F1E3
:103910002401A269FFF7E7FE10B10120E0715CE726
:10392000A07920F04000A071216848780123424628
:1039300004F12401FFF76EFE10B10120E0714CE7A5
:10394000C4F81880D4E90201884205D9A068E06073
:10395000A07940F02000A07150463EE7F7B582B054
:1039600016460398019001A800F026FE0546002D9A
:1039700002DA0B2005B0F0BD0E4850F825400CB11E
:1039800000202070029810B10020029908700949A7
:10399000029841F82500029808B1012E01D00020BC
:1039A000E8E7002203A902A800F05AFA07463846C1
:1039B000E0E70000540000202DE9F743ADF50C7D51
:1039C0000546164625B909200DF50F7DBDE8F083A3
:1039D0000020286006F01F0626F001028DA983A8AA
:1039E00000F03EFA0746002F74D180A88990CDF8E8
:1039F00028D283A88D9900F05FFC0746889C0FB9F8
:103A000004B9062706F01C0000285CD04FB1042F33
:103A100003D183A8FFF7BAFC074646F00806889C46
:103A200009E0E07A00F0110008B1072703E006F092
:103A3000040000B10827002F55D106F00800002827
:103A400051D000F0B5FD804684F80E804FEA182171
:103A5000E1734FEA184121744FEA1861617484F8E8
:103A600016804FEA1821E1754FEA184121764FEA96
:103A7000186161760020E072207700216177A177DC
:103A8000E1772146839801F0EBF88146002120463A
:103A900001F042FE012083990871B9F1000F22D094
:103AA0008398D0F82C804946839801F0C7FD0746DB
:103AB000CFB9A9F101008399C8604146839801F00C
:103AC00093FC07460FE077B9E07A00F0100010B1E0
:103AD000042708E02DE006F0020020B1E07A00F0B3
:103AE000010000B1072747B906F0080008B146F009
:103AF00020068398C06AE8612C62D7B9AE710020B5
:103B0000E8712146839801F0ABF82861E07F010657
:103B1000A07F41EA0041607F41EA0020217F084305
:103B2000E8600020A860A861839828602868C088A1
:103B3000A880384648E72DE9FF4F85B00446154672
:103B40009A46DDF818B00020CAF80000204601F0BF
:103B500088FE0490049818B1049809B0BDE8F08F6D
:103B6000E07908B1E079F8E7A07900F0010008B940
:103B70000720F2E7D4E90210401A02900298854229
:103B800000D9029DBAE021684989A068B0FBF1F232
:103B900001FB1200002877D121684989A068B0FB99
:103BA000F1F021688978491E084000F0FF09B9F159
:103BB000000F17D1A06810B92069039004E0616973
:103BC000206800F055FC03900398022802D20220DE
:103BD000E071C2E70398401C10B90120E071BCE716
:103BE0000398606161692068FEF7DAFF064616B93E
:103BF0000220E071B1E74E4420684089B5FBF0F83F
:103C0000B8F1000F2DD009EB0800216889788842AF
:103C100003D920688078A0EB0908216848784346DA
:103C200032465946FFF7F6FC10B10120E07194E7E7
:103C3000A07900F0400078B1A069801B40450BD20C
:103C4000A169891B23685B8901FB03B021684A894C
:103C500004F1240101F0B1FB2068408900FB08F762
:103C600042E0A069B04220D0A07900F0400080B1CD
:103C700021684878012304F12401A269FFF733FD8C
:103C800018B10120E07168E710E0A07920F0400051
:103C9000A071216848780123324604F12401FFF71E
:103CA000B9FC10B10120E07157E7A661216849898C
:103CB000A068B0FBF1F201FB1200216849890F1ADC
:103CC000AF4200D92F4621684989A068B0FBF1F2C4
:103CD00001FB120104F1240008443A460146019018
:103CE000584601F06AFB00BFBB44A0683844A0609E
:103CF000DAF800003844CAF80000ED1B002D7FF40C
:103D000042AF002029E72DE9F0410446204601F0AA
:103D1000A8FD0746002F4CD1A07900F02000002814
:103D200047D0A07900F0400078B12168487801239D
:103D300004F12401A269FFF7D6FC10B10120BDE80F
:103D4000F081A07920F04000A071E169206801F0C5
:103D50004BFB0746002F2CD1256AE87A40F0200063
:103D6000E872207B2877A089010A6977E068010C56
:103D7000A977E068010EE9772846216901F0CCFCBB
:103D800000F016FC0646AE75310AE975310C29764D
:103D9000310E69760020A8740021E974A07920F022
:103DA0002000A071012021680871206801F0CCFC7E
:103DB00007463846C3E7000010B50246802A01DAFC
:103DC00010461BE051B1FF2A01DD002304E0A2F1FF
:103DD00080030B4C34F8133018460FE0002007E046
:103DE000074B33F81030934200D103E0431C98B2E4
:103DF0008028F5DB00BF00F18003D8B210BD0000C1
:103E0000AE94000830B5802807DA612823DB7A28D1
:103E100021DCA0F12005A8B21DE00C2200234FF404
:103E2000F77400BFE51A03EB55010B4D35F811503F
:103E3000854200D10AE0084D35F81150854201DA7B
:103E40000B4600E00C46551E2A1EEBD100BF12B1F6
:103E5000024D35F8110030BDAE9500088A99000872
:103E60002DE9F74F8AB000210A9801600B9800F005
:103E7000A3FB09900998002803DA0B200DB0BDE8D8
:103E8000F08FE949099851F820400CB90C20F5E76A
:103E90000A980460207878B16078FFF716FC8146B4
:103EA00009F0010040B90C9820B109F0040008B1F4
:103EB0000A20E3E70020E1E7002020700998607005
:103EC0006078FFF75CFB814609F0010008B1032030
:103ED000D4E70C9820B109F0040008B10A20CDE71E
:103EE000607804F10A020221FFF75EFB38B96089AD
:103EF000B0F5007F03DB6089B0F5805F01DD012054
:103F0000BCE7002739462046FEF7F8FD0546012D9F
:103F100001D09DBB32E000261AE004F5F77000EBFB
:103F2000061898F8040070B198F80B00010698F88C
:103F30000A0041EA004198F8090041EA002098F897
:103F40000810084300E0002002A941F82600761C72
:103F5000042EE2D3002606B1761E00BF02A850F858
:103F6000267027B139462046FEF7C8FD00E0022042
:103F700005461DB1701C06460428EFD3032D01D160
:103F800001207BE70DB10D2078E73B20015D94F81F
:103F90003C0041EA00206189884201D00D206DE794
:103FA0004620015D94F8470041EA002ABAF1000F6B
:103FB0000ED194F85700010694F8560041EA0041EA
:103FC00094F8550041EA002094F8541040EA010AA0
:103FD000C4F818A04020005DE070E078012804D00B
:103FE000E078022801D00D2048E7E0780AFB00FACB
:103FF0003D20005DA070A07818B1A078411E084057
:1040000008B10D203AE74120015D94F8420041EAF1
:10401000002020816089C11700EBD16149112289FC
:1040200092FBF1F301FB132109B10D2026E7432098
:10403000015D94F8440041EA00200890089870B9A6
:1040400094F85300010694F8520041EA004194F8B4
:10405000510041EA002094F85010084308903E2097
:10406000015D94F83F0041EA00200190019808B9F1
:104070000D2003E76089C11700EBD1614911228946
:1040800092FBF1F20199514411440791DDE90710C7
:10409000884201D20D20F1E6DDE90710401AA1782F
:1040A000B0FBF1FBBBF1000F01D10D20E6E60125CD
:1040B00040F6F670834500D302254FF6F67083452F
:1040C00000D303250BF102006061E76101983844D9
:1040D000206207983844A062032D16D1208908B1C8
:1040E0000D20CBE694F85F00010694F85E0041EAEB
:1040F000004194F85D0041EA002094F85C10084308
:10410000606260698000069014E0208908B90D2083
:10411000B4E6206A50446062022D02D1606940001A
:1041200007E0207D00F00100616901EB410100EB37
:10413000510006906089401E069908446189B0FBD1
:10414000F1F0A169884201D90D2097E64FF0FF30C8
:104150002061E06080206071032D5AD194F86010D6
:1041600094F8610041EA0020012852D1791C2046D0
:1041700001F03AF9E8BB0020607194F82E1294F82F
:104180002F0241EA00204AF65521884241D13320CE
:10419000005D01063220005D41EA00413120005DF2
:1041A00041EA002094F8301008432049884230D179
:1041B00094F81702010694F8160241EA004194F8B7
:1041C000150241EA002094F8141208431849884265
:1041D0001FD194F81B02010694F81A0241EA00412B
:1041E00094F8190241EA002094F81812084320615B
:1041F00000E00EE094F81F02010694F81E0241EA66
:10420000004194F81D0241EA002094F81C12084372
:10421000E060257007480088401C80B2054908808E
:10422000E08000202AE60000540000205252614144
:10423000727241615C000020F0B504461D464D736A
:104240000F27CF7200270F738F76BC4681F81BC0F3
:10425000571E07EB870C0CEBC706002738463B467A
:1042600000BF4FF6FF77B84203D03746761C34F8CC
:104270001700DFF840C01CF803C001F80C0007125B
:10428000DFF830C01CF803C08C448CF8017008B90A
:104290004FF6FF705F1C3B460D2FE2D34FF6FF77C2
:1042A000B84202D034F816700FB942F040020A70DA
:1042B000F0BD0000749400082DE9F3410446019814
:1042C00000782F2803D0019800785C2802D101984B
:1042D000401C01900020A06001980078202807D29F
:1042E00000212046FFF7E7F805460020606128E03E
:1042F00000BF01A92046FEF7B7FD054605B11FE046
:104300002046FEF731FF0546A069C67A3DB1042D6F
:1043100004D100BF06F0040000B9052510E006F046
:10432000040000B10CE06769F87A00F0100008B9E9
:10433000052505E03946206800F092FCA060D8E72A
:1043400000BF2846BDE8FC8170B504460D46E1B2C9
:104350000548FEF7EBF800BF80210348FEF76CF834
:104360000028F9D0204670BD0038014010B5002863
:1043700021D0114B0022001F196803E0814203D8AD
:104380000A4649680029F9D152B11368841A9C423F
:1043900004D1006818441060104602E0506000E04C
:1043A000186039B102680B1A934203D10B681A44A2
:1043B00002604968416010BD640000202DE9FF4F94
:1043C00083B0814690461D460B224846049900F072
:1043D000F4FF052D18D92F4611E038F802BB002450
:1043E0000BE0584667F35F0007464FEA6B0B07F494
:1043F000803008B11D484740641C102CF1D3B8F838
:1044000000000028E9D13D46072400BF05F00F0059
:1044100000F1300ABAF1390F03DD0AF1070000F0AC
:10442000FF0A2046641E01A901F800A02D09002DF5
:10443000ECD17E200855002600E0761CA64203D26F
:1044400019F806002028F8D100BF082C04D2204615
:10445000641C01A9085C00E020203146761C09F8A4
:104460000100082EF1D307B0BDE8F08F2110010044
:104470002DE9F05F04460D46022D02D36069A84283
:1044800002D84FF001098FE04FF0FF392078012862
:1044900004D002283CD003287ED157E02F4607EBFA
:1044A00057076089B7FBF0F0216A00EB010A51461B
:1044B000204600F099FF00B175E038467F1C618905
:1044C000B0FBF1F201FB120104F1300010F80180A1
:1044D0006089B7FBF0F0216A00EB010A51462046E3
:1044E00000F082FF00B15EE06089B7FBF0F100FBF5
:1044F000117104F13000405C48EA002805F0010029
:1045000010B14FEA181001E0C8F30B0081464AE0F1
:10451000B4F80AA00AEBDA704010B5FBF0F0216A9B
:1045200000EB010B5946204600F05EFF00B13AE077
:1045300068006189B0FBF1F201FB120104F1300067
:104540000E183078717840EA01292CE0B4F80AA0FE
:104550004FEAEA700AEB90708010B5FBF0F0216A28
:1045600000EB010B5946204600F03EFF00B11AE077
:10457000A8006189B0FBF1F201FB120104F13000E7
:104580000E18F0780006B17840EA0140717840EAF0
:1045900001203178084300E002E020F0704902E099
:1045A0004FF0010900BF00BF4846BDE8F09F000082
:1045B000004870470000214670B502464FF0FF30BA
:1045C0001568E5B1116800E0491C0D78202D02D373
:1045D0000D783A2DF8D10D783A2D0FD1146814F8D2
:1045E000015BA5F130030A2B07D28C4205D1022BC7
:1045F00003D218464D1C2946156070BD002000BF2F
:10460000FBE72DE9FF5F0446884691469A46267BE4
:104610002768656828780390002083460290102060
:10462000019000BF36BB6FB9A5684FF400722946F0
:104630002046636F984707462FB96FF0010004B01A
:10464000BDE8F09F6D1C7F1E029850B100200290C3
:10465000287810B16FF00500F1E7FF200390287073
:1046600007E0287803900398FF2802D101200290E8
:1046700022E080264FEA4B0B0398304008B10BF143
:10468000010B761018F8010B00900EE039F8021BB0
:10469000594505D12673276065609AF80000CEE77A
:1046A0000AF1010A0098401E009000980028EDD100
:1046B0000198401E019000BF01980028B2D1801FD0
:1046C000BDE72DE9F84306460F469046B56F5FB14A
:1046D0006B46424639462868FFF72DFA0446201EED
:1046E0000ED10098BDE8F8832A68926802EB0801B1
:1046F0002868FFF766F808B94046F3E70020F1E7BD
:1047000000BFEFE72DE9F74F82B004461746032FAD
:1047100003DD052005B0BDE8F08F6773A07B4FEA8D
:10472000C009E07B4FEAC00A0021A182E182218317
:104730008B46CDF804B0002500262FE04FF000088E
:1047400028E0608BA0B15846411C1FFA81FB618BA9
:1047500088420DD10198421C92B201462046019236
:1047600000F0A2FF05460DB12846D3E74FF0010B3C
:10477000204600F053FB05460DB12846CAE73346F4
:1047800042462046039900F039FC05460DB1284603
:10479000C0E7C844E0694045D3D85644206AB042D7
:1047A000CCD82846B6E72DE9FF4F83B004460598DC
:1047B00018B9052007B0BDE8F08F0598E0660698A7
:1047C0002067049860671098A06700206083002627
:1047D0001BE04FF0000A14E0002104F1240000EB7C
:1047E000C60040F82A1004F1340000EBC60040F87F
:1047F0002A1004F1440000EBC60040F82A100AF128
:10480000010ABAF1020FE7D3761C022EE1D300268B
:1048100005E0002104F1540040F82610761C042E17
:10482000F7D34FF400712046FDF7BCFF0546A060AA
:104830000DB90320BEE7022229462046636F984740
:10484000022801D00220B5E76878297840EA0120E3
:104850004FF6D871884201D00620ABE74FF002092D
:1048600000BF042229462046636F9847042801D0E0
:1048700002209FE76878297840EA01200290E878D2
:10488000A97840EA0127022F04D9FF210298B1EB51
:10489000202F01D006208DE7BF1E381D81440298CD
:1048A000C0B2C0381E2872D2DFE800F00FF4F3F275
:1048B00072F1F0EF71EEEDEC71EBEAE9717171718B
:1048C0007171717171E8A68C715DB7F5007F01D9C6
:1048D00004206FE73A4629462046636F9847B8425E
:1048E00001D0022066E72879E97840EA0120E061FA
:1048F000A878697840EA012020626879032801D00D
:10490000082057E700262BE006EB4600C01D15F8EF
:1049100000808EB9B8F1110F07D0B8F1220F04D082
:10492000B8F1210F01D0082044E74FEA2810A07306
:1049300008F00F00E07304E0B8F1110F01D0082077
:1049400038E706EB4600083015F80080B8F1030F91
:1049500001DD08202EE704F1100000F80680761C27
:10496000032ED1D3ECE0B7F5007F01D9042021E775
:104970003A4629462046636F9847B84201D0022044
:1049800018E76878297840EA01206083D8E0CDE014
:10499000B7F5007F01D904200CE73A4629462046A6
:1049A000636F9847B84201D0022003E73A46294690
:1049B0002046FEF7BEF9C0B20190019808B10198F7
:1049C000F8E6BDE0B7F5007F01D90420F2E63A46EB
:1049D00029462046636F9847B84201D00220E9E695
:1049E0003A4629462046FEF757FBC0B2019001988F
:1049F00008B10198DEE6A3E0B7F5007F01D90420F5
:104A0000D8E63A4629462046636F9847B84201D017
:104A10000220CFE6E06908B1206A08B90620C9E69D
:104A20002878032801D00820C4E6002634E070006E
:104A3000801C15F80080B8F1000F04D0B8F1110FF8
:104A400001D00820B6E60EB1012000E0002080462B
:104A500004F1240050F8380028B104F1240000EBE0
:104A6000C800406808B90620A4E604F11000815D82
:104A7000443050F8210070B906209BE654E052E023
:104A800050E04EE04CE04AE048E046E044E042E0DE
:104A900040E03EE03CE0761C032EC8D3E07BA17BE7
:104AA00000FB01FBBBF1000F01D1062082E6402193
:104AB00001EBCB17FF2F00D88F0039462046FDF7BA
:104AC00071FE6066606E08B9032073E60BF10200A8
:104AD00081012046FDF766FEA066A06E08B903209E
:104AE00068E66560002020602073C9F30800B0F11B
:104AF00000090BD0C9F5007205EB09012046636F70
:104B00009847206005EB0900401E6060002051E6D8
:104B100000BF00BF00BF00BF00BF00BF00BF00BF9D
:104B200000BF00BF00BF00BF082043E63A46002197
:104B30002046636F9847B84201D002203AE600BF92
:104B40008FE600002DE9F041ADF5865D05460122B6
:104B5000294605A8FEF730FF06461EB905A80DF543
:104B6000805188634FF4E05000F022F9074641F28B
:104B7000380068444FF4E0533A461B4900900C302B
:104B8000FFF711FE0446002C1ED10DF58050D0F821
:104B9000B400C0F5E0530DF58050D0E9181213A011
:104BA000FDF7CAFC00221C4941F244006844FFF7AB
:104BB000A9FD04461CB919A0FDF7BEFC08E021467A
:104BC00018A0FDF7B9FC03E021461EA0FDF7B4FCD8
:104BD0003846FFF7CBFB0DF58051886BFEF7E1FD02
:104BE0000DF5865DBDE8F081C3460008496D61673B
:104BF000652064696D656E73696F6E733A20257503
:104C00002062792025752E202575206279746573C0
:104C100020757365642E0A001D5400080D4F4B204B
:104C2000200A00004661696C656420746F20646529
:104C3000636F6D70726573733A2072633D25640A09
:104C4000000000004661696C656420746F2070721A
:104C500065706172653A2072633D25640A00000048
:104C600010B502468C7ECB7E44EA03201378032BDA
:104C700005D10C7D4B7D44EA032340EA034010BD7F
:104C8000FBF7F6FF1C48FCF7C5FA00214FF478400B
:104C9000FCF7B6FA1948038819480288002108462B
:104CA000FBF740FE0620FBF773FFFDF785FBFCF7E3
:104CB000B7FA202013490860012008600220091D6E
:104CC000086011A0FDF738FC19A0FDF735FC0122A2
:104CD00026A12748FEF742FE2649087008460078BC
:104CE00010B125A0FDF728FC0620FBF751FF2DA0F1
:104CF000FFF728FF00BFFEE7280000201A00002071
:104D000018000020100C01400D0A202A2A2A2A2A05
:104D10002A2A2A2A2A20CFD4CABE4A5047CEC4BC47
:104D2000FE2A2A2A2A2A2A2A2A2A2A2A200D0A0080
:104D30000D0A20CAB5D1E9C7B0C7EBC8B7B1A353B4
:104D400044BFA8B5C4C4BFC2BCCFC2BEDFD3D0CAA3
:104D5000B5D1E9CAB9D3C3B5C44A5047CDBCC6AC76
:104D6000CEC4BCFE2C200D0A00000000303A00002A
:104D70006C000020140000200D0AC7EBB8F8BFAA91
:104D8000B7A2B0E5B2E5C8EBD2D1B8F1CABDBBAFAE
:104D9000B3C9666174B8F1CABDB5C45344BFA8A114
:104DA000A30D0A00303A2F4C7546752E6A706700C5
:104DB000F0B50B30154D20F007010024144A0FE028
:104DC00003688B420BD38B4205D95E1A43184768A0
:104DD000C3E9006700E04368136002C004E0021DFD
:104DE00010680028ECD12046002802D1286808B1BC
:104DF0000020F0BD064A07481060074A121A22F048
:104E00000702C0E9002401202860D7E768000020DD
:104E10006400002074110020703100202DE9F04F53
:104E200089B00446D4F86490A07BE17B48430890A5
:104E300002200790A06E04904FF0000BD4E0089879
:104E4000834501D2002003E00898ABEB0000401C32
:104E50000590059808B1012000E00020804604F18B
:104E6000240050F83800039004F1340050F8380062
:104E7000019004F1440050F8380002902046DDE92A
:104E800001230399FFF7BDFB0546002D04DA6842B4
:104E9000C0B209B0BDE8F08F04F11400059930F9F3
:104EA0001160F5B129462046FDF78BFC8246BAF128
:104EB000000F03DACAF10000C0B2EAE7681E012160
:104EC00001FA00F50AEA050020B90120C0EB45000F
:104ED000AAEB000A564432B204F11400059920F8F6
:104EE000112004F110000599415C443050F8210074
:104EF00000900098006870430012C9F80000012774
:104F000003E0002049F827007F1C402FF9D304F16B
:104F1000240000EBC8004068039004F1340000EB6B
:104F2000C8004068019004F1440000EBC8004068EC
:104F30000290012700BF2046DDE901230399FFF716
:104F400060FB054605B937E0002D02DA6842C0B2C1
:104F50009FE728090690069828B106980744402F35
:104F600001D3062095E705F00F00051E20D0294645
:104F70002046FDF726FC0646002E02DA7042C0B23B
:104F800087E7681E012101FA00F506EA050018B955
:104F90000120C0EB4500361A1748C05D06900699FF
:104FA000009850F8210070430112069849F820102B
:104FB000781C07464028BED300BF607B03280AD177
:104FC000D9F80000C11700EB116109128031CAB293
:104FD00004990A7003E048460499FDF73BFC0498E5
:104FE000403004900BF1010BDDE9071008445845EF
:104FF0003FF625AF00204CE7669D00082DE9FF4FE6
:105000008DB004464FF480600C90A07BC700E07B1D
:10501000C0000B900F983844E169884201D83846A7
:1050200002E0E1690F98081A83460B99109808442A
:10503000216A884201D80B9802E0216A1098081A68
:105040000A90607B2BFA00FB617B0A98C8400A90AB
:10505000BBF1000F01D00A9818B9002011B0BDE8CB
:10506000F08F617B0F98C8400F90617B1098C8400B
:1050700010900F9880B2ADF814000F985844401E5D
:1050800080B2ADF81600109880B2ADF818000A99F9
:1050900010980844401E80B2ADF81A00607B0328C7
:1050A0007DD0656E00266EE0D4F8688008EBC600FF
:1050B00007900B9810280BD170084FF4807101EB0A
:1050C000C0008044082E07D307984030079003E0C3
:1050D000F80000EBC60080444FF0000950E098F85B
:1050E00000008038099098F8400080380890102F10
:1050F00009D1B9F1080F02D107983830079009F0AB
:105100000100804401E008F10108079810F801ABA4
:10511000079040F29B52089901FB02F0C11700EB87
:1051200091510AEBA121C1F30901994A515C05F89B
:10513000011B4FF4B0720999514340F2DB23089AE6
:1051400003FB0210C11700EB9151AAEBA121C1F39F
:1051500009018F4A515C05F8011B40F2167209994A
:1051600001FB02F0C11700EB91510AEBA121C1F341
:105170000901874A515C2970691C0D4609F1010932
:10518000B945ACD3761C0B9886428DD3607B002842
:1051900053D0637B5A0094F80DE0012300E04DE00A
:1051A00003FA0EF17B1A03EB43030093606E0026B3
:1051B00040E04FF000093AE006FB079E0EEB4E0E72
:1051C000636E03EB0E050023019302930393049394
:1051D0001DE04FF0000C13E015F8013BDDF80CE08A
:1051E0007344039315F8013BDDF808E07344029320
:1051F00015F8013BDDF804E0734401930CF1010C58
:105200008C45E9D3009B1D44049B5B1C0493049BC9
:105210008B42DED3039BD34000F8013B029BD3407B
:1052200000F8013B019BD34000F8013B8944B9459C
:10523000C2D30E440B9B9E42BBD35BE0656EA16E56
:105240000B9807FB001898F800008038099098F830
:10525000400080380890002649E0A06E0790082E94
:1052600002D10798803007904FF000093CE0079882
:1052700090F800A007984030079040F29B520899A0
:1052800001FB02F0C11700EB91510AEBA121C1F320
:1052900009013F4A515C05F8011B4FF4B0720999AE
:1052A000514340F2DB23089A03FB0210C11700EBC5
:1052B0009151AAEBA121C1F30901354A515C05F8CE
:1052C000011B40F21672099901FB02F0C11700EBB5
:1052D00091510AEBA121C1F309012D4A515C2970BA
:1052E000691C0D4609F10809B945C0D308360B9869
:1052F0008642B2D3607BC740BB4521D2D4F864C09C
:1053000061466046002316E000220CE010F801CB55
:1053100001F801CB10F801CB01F801CB10F801CB5B
:1053200001F801CB521C5A45F0D3A7EB0B0C0CEB48
:105330004C0C60445B1CDDF828C06345E4D300BF1F
:10534000606E0246DDF828C00BFB0CF300BF10F8BE
:1053500001CB0CF0F80C4FEA0C2110F801CB0CF04B
:10536000FC0C41EACC0110F801CB41EAEC0122F837
:10537000021BA3F1010CBCF10003E8D105AA2046F1
:10538000616E0E9B984708B9012067E6002065E62C
:10539000269E0008F0B503461C460D46002000BFBF
:1053A000161EA2F1010207D014F8017B15F801CBFB
:1053B000A7EB0C06301EF3D0F0BD70B503460C46CB
:1053C00003E014F8015B03F8015B151EA2F1010272
:1053D000F7D170BD30B5034601E003F8011B141E80
:1053E000A2F10102F9D130BD70B504460D46002688
:1053F000E06AA84210D0204600F00AFA06465EB9DC
:10540000607801232A4604F13001FEF703F910B158
:105410004FF0FF350126E562304670BD2DE9F047BB
:10542000054688461446208858B9A088697B88407C
:1054300064214843296AB0FBF1FA51461BA0FDF7ED
:105440007BF84646B4F806C0B4F804A0ACEB0A0CEE
:105450000CF1010C1FFA8CF3B4F802C0B4F800A0F0
:10546000ACEB0A0C0CF1010C1FFA8CF2A18850462F
:10547000FBF712FC2C20FBF7BBFEA7880FE04FF0D8
:10548000000905E03088FBF7B7FEB61C09F10109F9
:1054900060882188401A401C4845F3D87F1CE0886A
:1054A000B842ECD20120BDE8F08700000D256C75F4
:1054B000252500002DE9F05F04460E461746022E12
:1054C00002D36069B04202D84FF00208B3E02078FE
:1054D000012804D0022852D0032872D172E0B146CC
:1054E00009EB59096089B9FBF0F0216A00EB010A68
:1054F00051462046FFF778FF8046B8F1000F00D0F4
:1055000098E0484609F101096189B0FBF1F201FB1D
:10551000120104F130000D1806F0010020B1F9B2BB
:10552000287861F31F1000E03846287001202071B0
:105530006089B9FBF0F0216A00EB010A5146204670
:10554000FFF752FF8046B8F1000F00D072E060898B
:10555000B9FBF0F100FB119104F130000D1806F0D9
:10556000010010B1C7F3071005E0287800F0F00043
:10557000C7F3032108432870012020715AE0B4F8D2
:105580000AA00AEBDA704010B6FBF0F0216A00EBDB
:10559000010B59462046FFF727FF8046B8F1000F60
:1055A00000D047E070006189B0FBF1F201FB12010D
:1055B00004F130000D182F70380A68700120207136
:1055C00038E034E0B4F80AA04FEAEA700AEB9070D1
:1055D0008010B6FBF0F0216A00EB010B5946204623
:1055E000FFF702FF8046B8F1000F00D022E0B000C4
:1055F0006189B0FBF1F201FB120104F130000D18DA
:10560000E8780006A97840EA0140697840EA01207C
:105610002978084300F0704007432F70380A6870FB
:10562000380CA870380EE8700120207102E04FF0AD
:10563000020800BF00BF4046BDE8F09F2DE9F041E1
:1056400004460E46022E02D36069B04201D80227FA
:1056500027E0002721E031462046FEF709FF0546F6
:1056600005B91DE0012D01D1022719E0681C08B918
:10567000012715E0002231462046FFF71BFF0746B1
:1056800007B10DE02069401C30B12069401C206149
:10569000607940F0010060712E466069B042DAD84E
:1056A00000BF3846BDE8F0812DE9F0470446884642
:1056B000666825680027B94614E05DB9A6684FF40E
:1056C000007231462046636F984705461DB9022097
:1056D000BDE8F087761C6D1E307840EA072087B25F
:1056E00009F10109B9F1020FE7D3666025600020D6
:1056F00020734FF6D87038404FF6D071884203D1EE
:105700007807B0EB487F01D00620E1E70021A182B5
:10571000E18221830020DBE781760B0AC3760A0C45
:1057200002750B0E4375704730B5014600200B2201
:1057300000BF431003EBC01411F8015B6319D8B22A
:10574000531E1A1EF5D130BD70B50446204600F038
:105750005FF80546002D59D1207803284FD1607994
:1057600001284CD16289002104F13000FFF732FE9C
:10577000552184F82E12AA2184F82F12522084F881
:105780003000522131200155612132200155412143
:1057900033200155722184F8141284F81512412126
:1057A00084F81612612184F81712217C84F81812EB
:1057B000208A010A84F819122069010C84F81A124F
:1057C0002069010E84F81B12217B84F81C12A08929
:1057D000010A84F81D12E068010C84F81E12E068CA
:1057E000010E84F81F12E069401CE062607801231A
:1057F00004F13001E26AFDF776FF00206071607805
:1058000000221146FDF7D0FE00B10125284670BDEB
:105810002DE9F041044600272079F8B1E56A607867
:1058200001232A4604F13001FDF75DFF08B101278D
:1058300014E000202071206A281AA16988420DD244
:10584000E67809E0A0690544607801232A4604F15E
:105850003001FDF748FF761E022EF3D23846BDE830
:10586000F08170B505462C4684B1206870B120687F
:10587000007858B12068C088A188884206D1216884
:105880004878FDF722FF00F0010008B1092070BD43
:105890000020FCE700000000000000000000000005
:1058A0000000000000000018181818181808000858
:1058B0001800000000000034242424000000000030
:1058C000000000000000000016247F2424247E2411
:1058D00024000000000000083E6848681C161212F0
:1058E0007C10100000000061D2967408101629493F
:1058F000C6000000000000003C646438724ACE46D6
:105900007F000000000000181818180000000000B8
:105910000000000000000004081810303030301083
:1059200010180C04000000201008080C0404040CDB
:1059300008181020000000080A341C6A0800000043
:10594000000000000000000000001818187F181860
:105950001800000000000000000000000000001817
:10596000180830000000000000000000003C0000AB
:10597000000000000000000000000000000000180F
:10598000180000000000000206040C080810102097
:1059900020400000000000003C6642475B73426606
:1059A0003C000000000000001878480808080808BB
:1059B0007E000000000000003C460606040810209F
:1059C0007E000000000000007C0606043C02020687
:1059D0007C000000000000000C1C14246444FF0440
:1059E00004000000000000007E6060607E0202068D
:1059F0007C000000000000001E30604876424262D9
:105A00003C000000000000007E0206040C08181094
:105A100030000000000000003C6242361C6642423A
:105A20003C000000000000003C664242661A02048E
:105A300078000000000000000000181800000018A6
:105A400018000000000000000000181800000018F6
:105A50001808300000000000000004183060100C2E
:105A60000600000000000000000000007E007E0034
:105A700000000000000000000000301804060C10B8
:105A800020000000000000301C0606061810001060
:105A9000100000000000001C224141DDB5A5A5AFAB
:105AA00094C0403C00000000181C342426627E4351
:105AB000C1000000000000007C4642467C42424299
:105AC0007C000000000000001E204040404040607C
:105AD0003E000000000000007C4642434343424633
